:020000040800F2
:10000000D80B0020C500000891130008C911000892
:1000100000000000000000000000000000000000E0
:100020000000000000000000000000002719000888
:10003000000000000000000069140008011A000818
:10004000F5000008F5000008F5000008F5000008BC
:10005000F5000008F5000008F5000008F5000008AC
:1000600000000000DD060008F5000008F5000008AB
:10007000F5000008111B0008F50000084D1B0008E2
:10008000BD1B00080000000000000000D51A000899
:1000900000000000F5000008F5000008F500000869
:1000A00000000000F500000800000000F500000856
:1000B0000348854600F02EFA00480047A91F0008B3
:1000C000D80B00200C4880F308880C480168090E02
:1000D0000B4A914205D10B480B4901600B480C4972
:1000E00001600C4880470C480047FEE7FEE7FEE74A
:1000F000FEE7FEE7FEE70000D80B0020040000004A
:100100001F00000018100240010000000000014024
:1001100000000000051A0008B100000830B50B46C9
:10012000014600202022012409E00D46D5409D42D1
:1001300005D31D469540491B254695404019154657
:10014000521E002DF1DC30BDF0B507460846584080
:1001500087B0C00F049048000E4659004008490877
:10016000BC1A884105D2384631461E4617460B4612
:1001700002465800400810434CD0300D0390400513
:100180005900400D490D0590401A0290402872DA3E
:1001900018030121000B09050843019004980092FF
:1001A000002805D001995242002088410092019018
:1001B000029840210A1A0199009800F017F90546A3
:1001C0000C466B4607CB00F032F9C0197141039A17
:1001D0000E0D0023D71756401A467A40164344D0D6
:1001E000049A002A2DD0029A012A039A15DC1205DE
:1001F000C01A914101263605001C7141D20F059E9F
:10020000D2070093019202962A46234600F02FF966
:1002100007B0F0BD38463146FAE71605224A0F46C8
:10022000B218C01AB74101210905001C4F4100183E
:100230007F41114618187941E20F10436D1964414E
:1002400013E0E2076D0815436408C2071443039ADC
:1002500001261205C01A91413605001C7141CE07D6
:10026000400830434908C01851412A46234600F04F
:10027000F1F8CDE7FFE7049801224000C117121AF8
:1002800000238B4104983146C417381AA141EEE788
:1002900030B40124E407634030BC55E730B4012496
:1002A000E407614030BC4FE70000E0FFF0B51FB449
:1002B00088B00B990998002448400999C00F49005B
:1002C00049080991C0070B990090490049080B9112
:1002D00009990898A64608431CD00B990A98084328
:1002E00018D0099801244000420D4800410D09989A
:1002F00024050003000B204309900B980003000B1A
:1003000020430B9050181C494018002201901446BD
:10031000104605E0002001460DB0F0BD032801DACB
:10032000034600E003239C46C11A0AAE0AE05F00C0
:1003300008ADED5B4F00F75B7D430027AA187C41B9
:10034000491C5B1E6145F2DD410004AB5A52210499
:10035000120C0A43240C401C0828DFDB0198029091
:100360000099704601910090059B049A07990698A0
:1003700000F07DF8D0E700000DFCFFFF0EB5C217BE
:10038000C10F5040CA0740180021054B029301924B
:1003900000910A460B4600F06AF803B000BD000069
:1003A0003304000070B5CD0F4A0009030123090B87
:1003B0001B0519430B4BED070024520D9A4201DA3D
:1003C000002070BD074B34339A4203DC9A1A00F0C8
:1003D0001DF802E00449511888402C43F1D04042F6
:1003E00070BD0000FF030000CDFBFFFF10B5202A09
:1003F00004DB0146203A9140002010BD91402023AB
:100400009C1A0346E3401943904010BD10B5202AC2
:1004100004DB0846203AD040002110BD0B46D340F3
:10042000D0402024A21A91400843194610BD10B5AF
:10043000202A06DBCB170846203A1041C1170B4390
:1004400006E00B461341D0402024A21A91400843F5
:10045000194610BD10B5002B08DA0024401C61417C
:1004600092185B411A4301D14008400010BDF0B51D
:100470001FB482B005460C0003D0084601F0D4FC3E
:1004800002E001F0D1FC20300246009021462846CF
:10049000FFF7ACFF049B059A04460F46184311432F
:1004A000084314D0184610431BD0009840210A1A64
:1004B00018460599FFF7AAFF05460E46009A0599CA
:1004C0000498FFF793FF084305D0012004E020467D
:1004D000394607B0F0BD0020C11705430E432C4339
:1004E000374300990E986305401A7905E40A002203
:1004F0000C43FD0A0A3002D500200146E9E7010558
:10050000101969410C9C0D9D00196941FFF7A2FF6C
:10051000DFE70000064C0125064E05E0E36807CC46
:100520002B430C3C98471034B442F7D3FFF7C4FD7B
:10053000EC1F00080C20000830B58C180278401C15
:1005400013071B0F01D10378401C120906D1027852
:10055000401C03E005780D70401C491C5B1EF9D15E
:1005600001E00B70491C521EFBD1A142E6D30020D2
:1005700030BD10B50B460021846A1C43846200BF65
:100580000C4614432146416110BD002904D0826805
:1005900001231A43826003E0826802231A438260C7
:1005A0007047002904D0C26801231A43C26003E0E7
:1005B000C26852085200C2607047C26802239A4360
:1005C000C260C2680A43C2607047000010B50446AA
:1005D0000548844207D10121401500F0D1FF0021D8
:1005E000601500F0CDFF10BD0024014030B501467C
:1005F0000020002200238C680125ED072C438C602D
:1006000000BF8C68E30FDB07521C0F242403A242B7
:1006100001D0002BF5D18C68E40FE407002C01D148
:10062000086C00E0002030BD30B5024600200023F9
:10063000012424060C40002C05D0946801252D06C9
:10064000AC43234600E013681C460C40002C01D04C
:10065000012000E0002030BD10B50022C268084B28
:100660001A400C7964030B6823438C682343CC68DD
:1006700023430C6923434C6923431A43C26010BDD2
:1006800003D2FFFF002905D0C26801231B031A43D0
:10069000C26004E0C26801231B039A43C260704732
:1006A000816804221143816070470021016001715B
:1006B0008160C16001614161704710B501F05CFC6F
:1006C00001F0D8FB01F012FC01F0DAF901F04AFA6E
:1006D00000F04AFB00F0A6FA10BD000010B50220A1
:1006E00000F0F2F8002813D00A4800880A49081AD6
:1006F00001B20A4802780078401C084B187050007C
:10070000074A1152012007490870022000F00CF836
:1007100010BD000064010020FF0F00000E0000204B
:1007200010000020140000200121090701400029C9
:1007300002D00349486001E0024948607047000068
:100740000004024000000240002904D00268012396
:100750001A43026003E00268014B1A4002607047CE
:10076000FEFF00000168554A114001600021016050
:1007700041608160C1605249884208D150490839BE
:1007800049680F2211434E4A083A516094E04C499F
:100790001431884208D14A4908394968F022114386
:1007A000474A083A516087E045492831884209D1D3
:1007B0004349083949680F2212021143404A083A56
:1007C000516079E03E493C31884209D13C490839C1
:1007D00049680F2212031143394A083A51606BE00D
:1007E00037495031884209D13549083949680F22C3
:1007F00012041143324A083A51605DE030496431D5
:10080000884209D12E49083949680F22120511433F
:100810002B4A083A51604FE029497831884209D182
:100820002749083949680F2212061143244A083A19
:10083000516041E02349884208D12249083949687A
:100840000F2211431F4A083A516035E01D49143107
:10085000884208D11B4908394968F0221143194AD6
:10086000083A516028E017492831884209D11549D2
:10087000083949680F2212021143124A083A51609E
:100880001AE010493C31884209D10E4908394968BB
:100890000F22120311430B4A083A51600CE0094938
:1008A0005031884208D10749083949680F2212049B
:1008B0001143044A083A516070470000FEFF0000EF
:1008C00008000240080402400146002000220123E3
:1008D0001B070B40002B02D0064B1A6801E0064BA9
:1008E0001A6813460B40002B01D0012000E00020C5
:1008F000704700000004024000000240002A03D0BC
:1009000003680B43036002E003688B430360704796
:1009100010B5002202680D4B1A400C6A8B68234305
:100920000C6923434C6923438C692343CC692343DB
:100930004C6A23438C6A23431A430260CB684360AA
:100940000B6883604B68C36010BD00000F80FFFF21
:100950000021016041608160C1600161416181618C
:10096000C1610162416281627047000000F044FA97
:1009700000240BE000F076FC00F04AFC00BF0648C3
:1009800001F0C0F905498842F9D3641C142CF1DB4D
:1009900001E000F045FAFCE700040040B20200006C
:1009A00004E0411E08B2002800DC00E0F9E700BFC7
:1009B000704700000149C8607047000000200240F5
:1009C00030B5044604250B20000400F08FF80546DE
:1009D000042D17D10C480069022108430A49086117
:1009E00008464461006940210843074908610B201B
:1009F000000400F07BF805460348006902218843A3
:100A000001490861284630BD0020024004200D49FC
:100A1000C968C907C90F002901D0012010E00949A0
:100A2000C96810221140002901D0022008E00549C0
:100A3000C96804221140002901D0032000E00420ED
:100A400070470000002002400348006980210843ED
:100A500001490861704700000020024078B5064651
:100A60000C460425002000900B20000400F03EF806
:100A70000546042D24D1134800690121084311497A
:100A8000086134800B20000400F030F80546042D86
:100A900010D1B01C0090200C009908800B2000049D
:100AA00000F024F805460748006940084000054961
:100AB000086105E0034800694008400001490861F9
:100AC000284678BD00200240054800698021084082
:100AD000002804D003480249486003484860704732
:100AE0000020024023016745AB89EFCD10B50346D6
:100AF0000424FFF78BFF044603E0FFF787FF04465B
:100B00005B1E012C01D1002BF7D1002B00D1052455
:100B1000204610BD10B51149114800F029F80F48C2
:100B200000780E494978090240180C49897809046F
:100B300040180A49C978090640180A4908600A4855
:100B400000680A4908600846006806490968884242
:100B500001D1012400E00024204610BD2400002023
:100B60009807002028000020007000082C000020BA
:100B70002A4A126812790270284A1268127A427060
:100B8000264A126852788270244A1268D278C2705B
:100B9000224A126812780271204A12685279427110
:100BA0001E4A1268927A82711C4A1268D279C27106
:100BB0001A4A1268527A0272184A1268927842727D
:100BC000164A1268D27A8272144A12689279C272F4
:100BD000134A1268127803785A400A70104A126851
:100BE000527883795A40C3795A40037A5A40437AFB
:100BF0005A40837A5A40C37A5A404A70084A126867
:100C0000927803795A408A70054A1268D2788378BC
:100C10005A4043785A40CA707047000018000020BC
:100C2000200000201CB501212320400400F068FCB6
:100C3000684600F0D5F880200090012168460171D7
:100C40000021817141710221C17169460920C006EC
:100C500000F042F81CBD1CB501212320400400F027
:100C60004FFC684600F0BCF80120C0020090012152
:100C700068460171002181714171C1716946092085
:100C8000C00600F029F80820009001216846017193
:100C9000002181714171C17169460920C00600F0CF
:100CA0001BF802200090002168460171417101216A
:100CB000C17169460920C00600F00EF810200090AE
:100CC00000216846017141710121C1716946092005
:100CD000C00600F001F81CBDF0B50A460021002353
:100CE000002400BF3DE001258D402B4615681D40C6
:100CF0002C469C4234D11579012D02D01579022D54
:100D000016D185684F000326BE40B54385605579EE
:100D10004E00B540866835438560858801268E4043
:100D2000B5438580858896798E40B6B235438580F7
:100D300005684F000326BE40B543056015794E0097
:100D4000B540066835430560C5684F000326BE40C0
:100D5000B543C560D5794E00B540C6683543C5601A
:100D6000491C1029BFD3F0BD1CB50121480400F077
:100D7000C7FBFF200130009001216846017100216E
:100D800081710121C1710321417169460920C006A9
:100D9000FFF7A2FF01204002009069460920C0062B
:100DA000FFF79AFF01208002009069460920C006E3
:100DB000FFF792FF0420009069460920C006FFF764
:100DC0008BFF1CBD02460020138A0B40002B01D074
:100DD000012000E000207047018570478161704765
:100DE00004490160002101710121417100218171DB
:100DF000C1717047FFFF0000704710B51021092036
:100E0000C006FFF7DFFF002800D110BD1021092028
:100E1000C006FFF7D7FF012800D1F6E700BFF4E7CF
:100E20007FB5002682480078002802D100F01AFA27
:100E300005E07F480078012801D100F02FF97D49B5
:100E40000020085E7C490860084600687B49096804
:100E500040187A49086077490220085E7649486060
:100E60000846406876490968401875490860754821
:100E70000078401C734908700020734908706E4860
:100E800000686D49496846187048864203D90020B9
:100E90006749087005E06D48864202D80120644920
:100EA000087068480078032821DD64490868C11784
:100EB000890F09188910664A116061490868C117CD
:100EC000890F09188910634A116000205B49086086
:100ED0005B4908605E48006811460968401A5E492F
:100EE000086008460068002801DA002008605A48B7
:100EF00000685A4909788900594A50505748007883
:100F0000800011460858574900228A5E904207DD4A
:100F10005248007880005249085A00B2514908806E
:100F20004E48007880004E4908584F4900228A5E9A
:100F3000904207DA4948007880004949085A00B2CF
:100F40004949088045480078401C444908700846D3
:100F5000007805280FDD002008704249085E4249EC
:100F600000228A5E801A4149086000203D490880BD
:100F70003F483D4908803D480068FFF7FFF90446B7
:100F800000223C4BFFF792F900223B4B019100906D
:100F9000FFF7DAF803910290FFF704FA3749086087
:100FA00032480068FFF7EAF904460022314BFFF7A8
:100FB0007DF90022324B01910090FFF76FF9039108
:100FC0000290FFF7EFF92F490860084600680028F3
:100FD00001DA002008602048006828490968884232
:100FE00003DB01202849087008E01B4800682549F8
:100FF0000968884202DC002023490870FFF7FDFEE3
:1010000022490870084600781F490978484000289E
:1010100001D1012000E000201D49087000F0F8F81F
:1010200000BF1C4800F06EFE1B498842F9D37FBD0B
:10103000D40000201000002050000020D800002024
:10104000DC000020F40000200E0000203011000021
:10105000E0000020E4000020E8000020BE000020A6
:10106000A4070020BA000020BC000020C00000201F
:10107000FF0F00000000E03F00004440EC000020B3
:1010800000003440F00000204C0000204D00002003
:101090004F00002000040040B202000010B5002103
:1010A000464800F045FE00BF444800F02BFE0528EE
:1010B000FAD308210920C006FFF78EFE022109207D
:1010C000C006FFF77FFE012810D100F09BF9002039
:1010D0003B4908703B48FFF7E3FA00BF3848007807
:1010E0000028FBD00020364908701EE002210920AC
:1010F000C006FFF767FE002817D100BF02210920B4
:10110000C006FFF75FFE0028F8D000F07BF9002052
:101110002B4908702B48FFF7C3FA00BF2848007816
:101120000028FBD000202649087000BF234800F0AB
:10113000E9FD1928FAD308210920C006FFF74EFE61
:1011400002210920C006FFF73DFE012810D100F062
:1011500059F900201A4908701A48FFF7A1FA00BF90
:10116000174800780028FBD00020154908701EE0C1
:1011700002210920C006FFF725FE002817D100BF75
:1011800002210920C006FFF71DFE0028F8D000F05C
:1011900039F900200A4908700A48FFF781FA00BFB0
:1011A000074800780028FBD0002005490870082176
:1011B0000920C006FFF710FE10BD0000000400402B
:1011C000140000200024014000BFFEE710B55D20A0
:1011D00000F030FB002801D000F0E2F9074800F0F1
:1011E0002BF8042000F01CF87D20000100F01EF810
:1011F00000F00EF800F004F810BD00005555000096
:101200000148024908607047CCCC00000030004023
:101210000148024908607047AAAA00000030004057
:101220000149486070470000003000400149886073
:10123000704700000030004001490860704700001E
:101240000030004010B50446FFF73EFC3520FFF7A4
:10125000B1FB2046FFF7B4FB3520FFF7ABFBFFF7F0
:10126000F3FB10BD10B50021464800F061FD00BF42
:10127000444800F047FD0528FAD308210920C0069C
:10128000FFF7AAFD02210920C006FFF79BFD0128F8
:1012900010D100F0D1F800203B4908703B48FFF71F
:1012A000FFF900BF384800780028FBD000203649FD
:1012B00008701EE002210920C006FFF783FD002808
:1012C00017D100BF02210920C006FFF77BFD0028CF
:1012D000F8D000F0B1F800202B4908702B48FFF738
:1012E000DFF900BF284800780028FBD000202649FD
:1012F000087000BF234800F005FD1928FAD3082123
:101300000920C006FFF76AFD02210920C006FFF789
:1013100059FD012810D100F08FF800201A490870FB
:101320001A48FFF7BDF900BF174800780028FBD026
:101330000020154908701EE002210920C006FFF7B1
:1013400041FD002817D100BF02210920C006FFF788
:1013500039FD0028F8D000F06FF800200A49087025
:101360000A48FFF79DF900BF074800780028FBD026
:1013700000200549087008210920C006FFF72CFD50
:1013800010BD0000000400401400002000240140B3
:101390007047000000218278002A27D0184A0323D2
:1013A0001B02D21803789B109B00D1580278920739
:1013B000D30EFF229A400B46934319464278920778
:1013C000120E03789B07DB0E9A4011430C4A03234D
:1013D0001B02D21803789B109B00D1500278D306D1
:1013E000DB0E01229A40064B1A6007E00278D30612
:1013F000DB0E01229A40024B80331A6070470000D6
:1014000000E100E0012040020921C90688618861ED
:101410008861886188618861886188618861886184
:101420008861886188618861886188618861014913
:101430000881704720000048012040020921C906A8
:101440008861886188618861886188618861886154
:101450008861886188618861886188610149088143
:1014600070470000200000487047000010B5134886
:1014700000F040FA124908600846006811498842A5
:1014800003DC0F480068002804DA00200C490860DB
:1014900000F048FA0A480068401C094908600846FC
:1014A0000168064800F08EFC3220FFF779FA044804
:1014B0000068012801DC00F035FA10BD005000087A
:1014C00034000020FFFF00000C494968012292030C
:1014D00091430A4A51601146496882B21143074A52
:1014E00051601146096B92159143044A11631146EC
:1014F000096B020C1143014A11637047001002404E
:10150000002905D0054A52690243044B5A6104E0A0
:10151000024A52698243014B5A61704700100240EF
:10152000002905D0054AD2690243044BDA6104E080
:10153000024AD2698243014BDA61704700100240CF
:10154000002905D0054A12690243044B1A6104E0E0
:10155000024A12698243014B1A617047001002402F
:10156000002905D0054A92690243044B9A6104E0C0
:10157000024A92698243014B9A617047001002400F
:10158000002905D0054AD2680243044BDA6004E022
:10159000024AD2688243014BDA6070470010024071
:1015A0000348406A0121090608430149486270471F
:1015B0000010024010B501210905481100F07AF928
:1015C000012000F063F901200006FFF77DFF00BF56
:1015D000192000F02FF90028FAD0022000F07CF941
:1015E00000BF00F04BF90828FBD110BDFEB5044642
:1015F00000250026002002900190009000278648D8
:1016000040680C2108400546002D06D0042D07D067
:10161000082D08D00C2D2CD128E0804820602BE02C
:101620007E48206028E07C4840680F2189040840FB
:101630000646794840680321C90308400290B00C6F
:10164000861C0298002803D17548374647430BE0B3
:101650007148C06A0007000F401C01906F48019953
:10166000FEF75CFD70430746276005E06D4820608B
:1016700002E06A48206000BF00BF67484068F02170
:10168000084005462D096848405D00902068009993
:10169000C84060606048406807210902084005466C
:1016A0002D0A6148405D009061680098C140A160CA
:1016B0005948006BFF2101310840884202D05B4845
:1016C000E0600DE0544840680121890308408842E9
:1016D00003D0A0684008E06002E0A0688008E060F5
:1016E0004D48006B40210840402802D050482061FE
:1016F00002E00120C00320614748006B1021084030
:10170000102802D04548606101E0206860614248CD
:10171000006B8007800F002802D1A068A06119E04B
:101720003D48006B8007800F012802D12068A0612E
:1017300010E03948006B8007800F022802D1800337
:10174000A06107E03448006B8007800F032801D1B7
:101750003248A0613048006B03210904084000288A
:1017600002D1A068E06120E02B48006B032109044E
:10177000084001210904884202D12068E06114E098
:101780002548006B032109040840012149048842CF
:1017900002D18010E06108E01F48006B03210904BA
:1017A0000840884201D11D48E0611B48006B0321BD
:1017B00089040840002802D1A068206220E0164871
:1017C000006B03218904084001218904884202D169
:1017D0002068206214E01048006B0321890408404F
:1017E0000121C904884202D10011206208E00A48A0
:1017F000006B032189040840884201D10748206218
:101800000548006B80210840802802D005486062AE
:1018100000E06762FEBD00000010024000127A0086
:1018200000093D00006CDC0254010020809FD500BF
:101830001280000010B50246002100230020511143
:10184000002902D10C4C23680BE0012902D10A4C7B
:10185000236A06E0022902D1074C636A01E0064CC4
:10186000636BD106C90E01248C401C40002C01D0B2
:10187000012000E0002010BD001002400248406836
:101880000C2108407047000000100240002807D0DB
:1018900007490968012212061143054A116006E052
:1018A00003490968012212069143014A11607047F9
:1018B00000100240074A52687B23DB039A43054B22
:1018C0005A601A46526803460B431A43014B5A604A
:1018D000704700000010024001460020044A506892
:1018E0008008800002460A431046014A5060704753
:1018F0000010024010B501460B460A460868084C25
:10190000206004E00A46091D0868054C2060044870
:101910000068401C0028F5D11068014C206010BD03
:1019200050010020704770470CB5002001900090D6
:10193000314800680121090408432F49086000BFAD
:101940002D48006801214904084000900198401C7E
:1019500001900098002804D10521090301988842CC
:10196000EED125480068012149040840002802D032
:101970000120009001E0002000900098012839D15A
:1019800011201E4908601C4840681B4948600846F1
:1019900040684860084640687F21C903884316496B
:1019A000486008464068112109040843124948600C
:1019B000084600680121090608430F49086000BF76
:1019C0000D4800680121490608400028F8D00A485F
:1019D0004068800880000849486008464068022145
:1019E00008430549486000BF034840680C2108408F
:1019F0000828F9D10CBD0000001002400020024070
:101A00007047000010B51B480068012108431949C0
:101A1000086008464068184908401649486008466A
:101A2000006816490840134908600846006801210B
:101A3000890488430F490860084640683F2109042B
:101A400088430C4948600846C06A00090001C86222
:101A50000846006BFF215431884306490863084655
:101A6000406B40084000486300208860FFF75CFF3F
:101A700010BD0000001002400CB8FF08FFFFF6FE8A
:101A80001FB501210802FFF74BFD114800F0B8F81F
:101A9000132168460170012181704170FFF77AFCC3
:101AA00001A800F085F9002168468181C1807D2070
:101AB000C00002901721684681800021817301A92E
:101AC000034800F037F90121014800F08BF81FBDF1
:101AD0000020004010B501210B4800F016F9002845
:101AE00010D00A480088401C084908800846008831
:101AF0000A2803DB0020088000F076FA0121024862
:101B000000F06DF810BD000000200040B000002083
:101B100010B501210B4800F0F8F8012803D101218C
:101B2000084800F059F80421064800F0EEF80028B3
:101B300006D00548FEF7B4FD0421024800F04CF839
:101B400010BD0000002C01400024014010B501210F
:101B5000880700F0DAF8002803D00121880700F098
:101B60003BF810BD1FB501210220FFF7D9FC102161
:101B7000684601700121817004214170FFF70AFC61
:101B80000C4800F03DF801A800F012F90021684669
:101B90008181C1800848029001216846818000212E
:101BA000817301A9034800F0C5F80121014800F044
:101BB00019F81FBD0004004060EA000010B50121C3
:101BC000044800F0A2F8002803D00121014800F0E9
:101BD00006F810BD00040040CA4302827047CA43A1
:101BE00002827047002904D0028801231A43028030
:101BF00003E00288014B1A4002807047FEFF00009C
:101C000010B504463748844208D10121C014FFF7BB
:101C1000B7FC0021E014FFF7B3FC62E0012080076D
:101C2000844208D101210846FFF78AFC00210120E7
:101C3000FFF786FC55E02C48844208D101210220A0
:101C4000FFF77EFC00210220FFF77AFC49E02748DD
:101C5000844208D101211020FFF772FC00211020DE
:101C6000FFF76EFC3DE02248844208D1012120208C
:101C7000FFF766FC00212020FFF762FC31E01D48E1
:101C8000844208D101218015FFF75AFC0021A015DC
:101C9000FFF756FC25E01848844209D101210804C9
:101CA000FFF76EFC002101200004FFF769FC18E03B
:101CB0001248844209D101214804FFF761FC002148
:101CC00001204004FFF75CFC0BE00D48844208D182
:101CD00001218804FFF754FC002101208004FFF754
:101CE0004FFC10BD002C01400004004000100040DB
:101CF000001400400020004000400140004401402A
:101D0000004801400146486A704730B5024600204D
:101D100000230024158A0D402B4695890D402C4642
:101D2000002B03D0002C01D0012000E0002030BDAA
:101D30004162704700220288154B984206D0012369
:101D40009B07984202D0134B984203D1124B1A4082
:101D50004B881A43114B984203D0114B1A400B8900
:101D60001A4302804B68C3620B880385084B984274
:101D700008D00C4B984205D00B4B984202D00B4B2D
:101D8000984201D18B7A0386012383827047000039
:101D9000002C0140000400408FFF000000100040B4
:101DA000FFFC0000004001400044014000480140A9
:101DB0000021C9434160002101800181418081727D
:101DC0007047000070B504460E46254620680C4951
:101DD00008600BE0241D601B01218902884202D9A2
:101DE0002846FFF72FFA2068054908600448006874
:101DF000401C0028EED13146204600F003F870BDAB
:101E00005001002070B504460D46FEF75DFE3520FA
:101E1000FEF7D0FD29462046FEF720FE3520FEF7CE
:101E2000C9FDFEF711FE70BD2021020C01D010216A
:101E30001046020A01D010460839020901D01046A6
:101E4000091F820801D01046891E420801D0881E51
:101E50007047081A704702E008C8121F08C1002A1C
:101E6000FAD170477047002001E001C1121F002A1B
:101E7000FBD1704700B587B001214802FFF770FB26
:101E80001848FEF7A3FB01A8FEF70FFC00206946E7
:101E9000087205900190069001A91248FEF7DCFB3C
:101EA00001211048FEF7EEFB012211460D48FEF716
:101EB00060FB0C48FEF79AFB01210A48FEF765FB20
:101EC00000BF09490748FEF7AFFB0028F9D0012100
:101ED0000448FEF766FB02210248FEF76EFB07B0DE
:101EE00000BD0000002401400100000100B58DB0DC
:101EF00001210846FFF704FB092168460171012111
:101F000081710021417101A8FFF744FA1748FEF7DB
:101F100029FC02A8FEF71CFD01200590002004907A
:101F20000C901348039001208002099080200790B4
:101F300020200A900F4802908015089000200690FB
:101F4000012040030B9002A90848FEF7E1FC0122A2
:101F500002210648FEF7D2FC0220FEF7E5FB012134
:101F60000248FEF7F1FB0DB000BD00000800024082
:101F700064010020402401401CB501214804FFF702
:101F8000BFFA6846FEF72CFF012000900321684647
:101F900001710021817141710121C17169460920DE
:101FA000C006FEF799FE1CBD10B5FFF703FBFEF758
:101FB00052FEFEF782FB0948FFF718FB0848FEF7C0
:101FC000EFFCFFF703F9FEF7A5FD06490870FFF7E0
:101FD0004DFAFEF7CBFC002010BD0000700700207A
:101FE0008813000015000020704700000C20000836
:101FF00000000020640100003805000838200008B7
:1020000064010020740A0000661E000801193AAC41
:10201000F7FF1F431910191C027D2033F401031729
:10202000F40193FF0F0391FF0F1D0102030401024E
:08203000030406070809000083
:04000005080000B13E
:00000001FF
