:020000040800F2
:10000000700C0020C5000008352200083D130008D0
:1000100000000000000000000000000000000000E0
:10002000000000000000000000000000D9280008C7
:100030000000000000000000A9220008212A00089A
:10004000F5000008F5000008F5000008F5000008BC
:10005000F5000008F5000008F5000008F5000008AC
:1000600000000000FD0A0008F5000008F500000887
:10007000F5000008312B0008F50000086D2B000882
:10008000DD2B00080000000000000000F52A000839
:1000900000000000F5000008F5000008F500000869
:1000A00000000000F500000800000000F500000856
:1000B0000348854600F0A6F9004800479D2F000838
:1000C000700C00200C4880F308880C480168090E69
:1000D0000B4A914205D10B480B4901600B480C4972
:1000E00001600C4880470C480047FEE7FEE7FEE74A
:1000F000FEE7FEE7FEE70000700C002004000000B1
:100100001F00000018100240010000000000014024
:1001100000000000252A0008B100000830B50B4699
:10012000014600202022012409E00D46D5409D42D1
:1001300005D31D469540491B254695404019154657
:10014000521E002DF1DC30BDF8B502464A40D40FF6
:1001500042004B0052085B089A4202D2024608460F
:1001600011464A0023D0C30D4A00DDB2120EAD1A6B
:10017000202D35DA49020126490AF6058A19002C94
:1001800000D0524220214F1B1146B9402A4110187D
:10019000C20D9A4221D0002C17D0012D08DCDA05BF
:1001A000801AD20F8019D207DBB200F0F1F8F8BD47
:1001B000DA05801A012340001B06C01880185A4235
:1001C0008018CA0F1043490007E04908C2071143CD
:1001D000DA05801A80194008801800F0D1F8F8BDBF
:1001E00061000122511A001BF7E70122D20751409A
:1001F000AAE70122D2075040A6E7024670B54A405E
:10020000D30FDB0740002DD04A002AD0010E140E78
:10021000000212020919400A520A8418E501044634
:100220005443000A120A2E045043A4194219200C08
:10023000C543AA18120C0125AD03521C5219120411
:100240007F39240400D0521C104301D44000491EC1
:10025000C2B20C06C0092018401C4008802A02D0F7
:1002600003E0002070BD40084000002900DA0020B3
:10027000184370BD70B502464A40D50F40004A0091
:10028000ED0740085208002814D0002A12D0C40DEF
:10029000D30D41020120C0055202490A520AE41A54
:1002A000091812187D34914201D3641C00E0490002
:1002B000002C01DA002070BD0023914201D3891A7D
:1002C0000343400849000028F7D100290AD0914291
:1002D00002D10121C90705E0914201D2012101E0CB
:1002E0000121C943E005C018401900F049F870BD6C
:1002F00010B500229623114600F04AF810BDC20F37
:10030000410040020123400ADB05D207090EC01854
:100310007F2901DA00207047962903DC9623591AB9
:10032000C84001E096398840002AF4D04042704726
:10033000410040020122400AD205090E80187F299F
:1003400001DA00207047962903DC9622511AC84032
:1003500070479639884070470122D207002800DB99
:10036000101A002900DB511A814270470122D2077E
:10037000002800DB101A002900DB511A8842704760
:10038000002904DA401C490001D1400840007047B0
:1003900070B40024050C05D11024000402D10029FA
:1003A00021D01124050E01D100020834050F01D11E
:1003B0000001241D850F01D18000A41C002801DB51
:1003C0004000641C002908D020252E1B0D46F54056
:1003D000A14000D001212943084301061B1B000A4C
:1003E000DB1D02D5002070BC7047DB051818801893
:1003F0000029F8DA401C4900F5D170BC40084000E3
:1004000070470000064C0125064E05E0E36807CC66
:100410002B430C3C98471034B442F7D3FFF74CFE03
:10042000583000087830000830B58C180278401C2D
:1004300013071B0F01D10378401C120906D1027863
:10044000401C03E005780D70401C491C5B1EF9D16F
:1004500001E00B70491C521EFBD1A142E6D30020E3
:1004600030BD10B50B460021846A1C43846200BF76
:100470000C4614432146416110BD002904D0826816
:1004800001231A43826003E0826802231A438260D8
:100490007047002904D0C26801231A43C26003E0F8
:1004A000C26852085200C2607047C26802239A4371
:1004B000C260C2680A43C2607047000010B50446BB
:1004C0000548844207D10121401501F079FF002140
:1004D000601501F075FF10BD0024014030B50146E4
:1004E0000020002200238C680125ED072C438C603E
:1004F00000BF8C68E30FDB07521C0F242403A242C9
:1005000001D0002BF5D18C68E40FE407002C01D159
:10051000086C00E0002030BD30B50246002000230A
:10052000012424060C40002C05D0946801252D06DA
:10053000AC43234600E013681C460C40002C01D05D
:10054000012000E0002030BD10B50022C268084B39
:100550001A400C7964030B6823438C682343CC68EE
:1005600023430C6923434C6923431A43C26010BDE3
:1005700003D2FFFF002905D0C26801231B031A43E1
:10058000C26004E0C26801231B039A43C260704743
:10059000816804221143816070470021016001716C
:1005A0008160C16001614161704710B502F0DEFCFD
:1005B00002F05AFC02F094FC02F072FA02F0E2FA45
:1005C00000F023FE00F07EFD10BD000010B500F02D
:1005D00057FA294801780078401C274A10704800D3
:1005E0002649085E264909788900264A5050224843
:1005F00001780078401C204A107048001F49085EAE
:100600001F4909788900204A50501B48017800781A
:10061000401C194A107048001849085E18490978AA
:1006200089001A4A505016480078401C1449087036
:1006300008460078042808DA00BF154802F072FB6B
:100640002D2109018842F8D315E00D4800780328D0
:1006500011DD00F097FE02F0DBF800F06DFE0D49B1
:10066000087002F0BBFC00BF094802F05BFB2D21C3
:1006700009018842F8D310BD42010020E80700209C
:10068000430100200C0800201C0800202C0800203A
:1006900000040040C8000020F8B50024002526E032
:1006A00000F0EEF92846691CCDB24000D649085E3C
:1006B000A100D64A50502846691CCDB24000D2490C
:1006C000085EA100D24A50502846691CCDB24000B5
:1006D000CD49085EA100CF4A5050601CC4B200BF93
:1006E000CD4802F01FFB2D2109018842F8D3032CCD
:1006F000D6DB00F0C5F92846691CCDB24000C249DE
:10070000085EA100C14A50502846691CCDB2400085
:10071000BD49085EA100BE4A50502846691CCDB2B2
:100720004000B949085EA100BA4A5050601CC4B2EA
:1007300000BFB94802F0F6FA2D2109018842F8D32A
:100740000020B649087000240025B0490968AF4A66
:1007500052688918AD4A92688918AC4AD2688918DB
:100760008808FFF7C5FDAE4909788900AD4A5050A9
:10077000A7490968A64A52688918A54A9268891843
:10078000A34AD26889188808FFF7B2FDA4490978FE
:100790008900A54A50509F4909689E4A52688918A5
:1007A0009C4A926889189B4AD26889188808FFF782
:1007B0009FFD9B49097889009C4A5050984A1278BD
:1007C0009200994B9958964A12789200954B9858F6
:1007D000FFF7BAFC0746924800788000934A115808
:1007E0003846FFF7B1FC0646FFF7A2FD8C490978B1
:1007F00089008F4A50508A49097889005058FFF77C
:1008000077FD0746864800788000864A11588B207D
:10081000C005FFF7F2FC39460090FFF72BFD0646B6
:10082000FFF786FD7E4909788900824A50507C494D
:10083000097889007E4A5058FFF75AFD07467848E4
:1008400000788000784A11588B20C005FFF7D5FC4E
:1008500039460090FFF70EFD0646FFF769FD704927
:1008600009788900744A50506D4909788900704AA6
:100870005058FFF73DFD07466948007880006B4AF5
:1008800011588B20C005FFF7B8FC39460090FFF7E0
:10089000F1FC0646FFF74CFD614909788900674A7B
:1008A00050505F480078401C5D4908700846007849
:1008B000022878DB002008705E4840685D490968BE
:1008C000884207D95B4840685A490968401A5C4920
:1008D000086006E05748006856494968401A584978
:1008E00008605548406854490968884207D9524809
:1008F000406851490968401A5249086006E04E486C
:1009000000684D494968401A4E4908604B484068A4
:100910004A490968884207D94848406847490968F0
:10092000401A4949086006E044480068434949685C
:10093000401A454908603E4840683D490968884278
:1009400007D93B4840683A490968401A3F4908605E
:1009500006E03748006836494968401A3B49086054
:100960003A480068800839490860394800683949C0
:10097000096840183849096840184000374908603C
:100980003248006836490968401840087D21C9008E
:10099000081A28383349086008460068642803DCD0
:1009A0006420086009E021E02E4800687D21C9002C
:1009B000884202DB08462B4908601D4801682A4826
:1009C00002F010FA1B480168284802F00BFA1A4896
:1009D0000168274802F006FA18480168254802F025
:1009E00001FA20480168244802F0FCF9002023495C
:1009F000087002F0F3FA00BF074802F093F92D21C6
:100A000009018842F8D3F8BDE80700200C0800204F
:100A10001C0800202C080020000400400E000020CC
:100A2000A60000204C000020540000205C000020A4
:100A3000C0000020A8000020B0000020B800002066
:100A4000CC000020D0000020D4000020D8000020DE
:100A5000F0000020F4000020F80000200001002039
:100A6000DC00002094000020006000080064000802
:100A700000680008006C0008005C0008A00000206E
:100A800010B50021194802F063F900BF174802F0C1
:100A900049F90528FAD3012204210920C00600F0F3
:100AA00003FC0920C006808A802108430921C90669
:100AB00088820846808A0E4908400921C906888232
:100AC00000200C4908700C48FFF762FD00BF094880
:100AD00000780028FBD0002006490870002204217D
:100AE0000920C00600F0E0FB10BD0000000400403B
:100AF0007FFF0000100000200024014010B50220FC
:100B000000F0F2F8002813D00A4800880A49081AB1
:100B100001B20A4802780078401C084B1870500057
:100B2000074A1152012007490870022000F00CF812
:100B300010BD0000B4010020FF0F00000E000020D7
:100B4000E8070020100000200121090701400029CA
:100B500002D00349486001E0024948607047000044
:100B60000004024000000240002904D00268012372
:100B70001A43026003E00268014B1A4002607047AA
:100B8000FEFF00000168554A11400160002101602C
:100B900041608160C1605249884208D1504908399A
:100BA00049680F2211434E4A083A516094E04C497B
:100BB0001431884208D14A4908394968F022114362
:100BC000474A083A516087E045492831884209D1AF
:100BD0004349083949680F2212021143404A083A32
:100BE000516079E03E493C31884209D13C4908399D
:100BF00049680F2212031143394A083A51606BE0E9
:100C000037495031884209D13549083949680F229E
:100C100012041143324A083A51605DE030496431B0
:100C2000884209D12E49083949680F22120511431B
:100C30002B4A083A51604FE029497831884209D15E
:100C40002749083949680F2212061143244A083AF5
:100C5000516041E02349884208D122490839496856
:100C60000F2211431F4A083A516035E01D491431E3
:100C7000884208D11B4908394968F0221143194AB2
:100C8000083A516028E017492831884209D11549AE
:100C9000083949680F2212021143124A083A51607A
:100CA0001AE010493C31884209D10E490839496897
:100CB0000F22120311430B4A083A51600CE0094914
:100CC0005031884208D10749083949680F22120477
:100CD0001143044A083A516070470000FEFF0000CB
:100CE00008000240080402400146002000220123BF
:100CF0001B070B40002B02D0064B1A6801E0064B85
:100D00001A6813460B40002B01D0012000E00020A0
:100D1000704700000004024000000240002A03D097
:100D200003680B43036002E003688B430360704772
:100D300010B5002202680D4B1A400C6A8B682343E1
:100D40000C6923434C6923438C692343CC692343B7
:100D50004C6A23438C6A23431A430260CB68436086
:100D60000B6883604B68C36010BD00000F80FFFFFD
:100D70000021016041608160C16001614161816168
:100D8000C1610162416281627047000000F092FA25
:100D9000002400E0641C0A2CFCDB43E022480078BD
:100DA000012811DA2148007800280DDC204800785D
:100DB000012802D1FFF70AFC34E01D480078002822
:100DC00030D100F009FB2DE0FFF75AFE00F0DAFA0F
:100DD00002F004F9174800881749884213DB002005
:100DE0001449088008210920C00600F046FA0028AE
:100DF00001D1012000E0002005462A4608210920F3
:100E0000C00600F051FA0B480088401C09490880D0
:100E100000BF0A4801F086FF2D2109018842F8D35E
:100E200001F05CFDBAE70000A6000020A000002051
:100E3000C800002038010020041000000004004019
:100E400004E0411E08B2002800DC00E0F9E700BF22
:100E5000704700000149C860704700000020024050
:100E600030B5044604250B20000400F08FF8054639
:100E7000042D17D10C480069022108430A49086172
:100E800008464461006940210843074908610B2076
:100E9000000400F07BF805460348006902218843FE
:100EA00001490861284630BD0020024004200D4958
:100EB000C968C907C90F002901D0012010E00949FC
:100EC000C96810221140002901D0022008E005491C
:100ED000C96804221140002901D0032000E0042049
:100EE0007047000000200240034800698021084349
:100EF00001490861704700000020024078B50646AD
:100F00000C460425002000900B20000400F03EF861
:100F10000546042D24D113480069012108431149D5
:100F2000086134800B20000400F030F80546042DE1
:100F300010D1B01C0090200C009908800B200004F8
:100F400000F024F8054607480069400840000549BC
:100F5000086105E003480069400840000149086154
:100F6000284678BD002002400548006980210840DD
:100F7000002804D00348024948600348486070478D
:100F80000020024023016745AB89EFCD10B5034631
:100F90000424FFF78BFF044603E0FFF787FF0446B6
:100FA0005B1E012C01D1002BF7D1002B00D10524B1
:100FB000204610BD10B51149114800F029F80F481E
:100FC00000780E494978090240180C4989780904CB
:100FD00040180A49C978090640180A4908600A48B1
:100FE00000680A490860084600680649096888429E
:100FF00001D1012400E00024204610BD2000002083
:1010000000080020240000200070000828000020B4
:101010002A4A126812790270284A1268127A4270BB
:10102000264A126852788270244A1268D278C270B6
:10103000224A126812780271204A1268527942716B
:101040001E4A1268927A82711C4A1268D279C27161
:101050001A4A1268527A0272184A126892784272D8
:10106000164A1268D27A8272144A12689279C2724F
:10107000134A1268127803785A400A70104A1268AC
:10108000527883795A40C3795A40037A5A40437A56
:101090005A40837A5A40C37A5A404A70084A1268C2
:1010A000927803795A408A70054A1268D278837818
:1010B0005A4043785A40CA7070470000140000201C
:1010C0001C0000201CB501212320400401F038F948
:1010D000684600F0DDF8802000900121684601712B
:1010E0000021817141710221C17169460920C00648
:1010F00000F043F81CBD1CB501212320400401F081
:101100001FF9684600F0C4F8012000030090012197
:1011100068460171002181714171C17169460920E0
:10112000C00600F02AF80120C002009000216846A5
:10113000017141710221C17169460920C00600F0A8
:101140001CF80820009001216846017100214171BE
:101150000221C17169460920C00600F00EF8102076
:10116000009000216846017141710221C1716946F8
:101170000920C00600F001F81CBDF0B50A460021A8
:101180000023002400BF3DE001258D402B4615685B
:101190001D402C469C4234D11579012D02D0157981
:1011A000022D16D185684F000326BE40B5438560E9
:1011B00055794E00B540866835438560858801269F
:1011C0008E40B5438580858896798E40B6B235438A
:1011D000858005684F000326BE40B543056015793C
:1011E0004E00B540066835430560C5684F000326CC
:1011F000BE40B543C560D5794E00B540C66835439D
:10120000C560491C1029BFD3F0BD1CB5012148049D
:1012100001F096F8FF20013000900121684601712D
:10122000002181710121C1710321417169460920A9
:10123000C006FFF7A2FF0120400200906946092086
:10124000C006FFF79AFF012080020090694609203E
:10125000C006FFF792FF0420009069460920C006EF
:10126000FFF78BFF1CBD02460020138A0B40002BAA
:1012700001D0012000E00020704702460020938A40
:101280000B40002B01D0012000E00020704700003F
:101290000449016000210171012141710021817126
:1012A000C1717047FFFF0000002A01D0816100E09A
:1012B0000185704710B5124801F03CFA11490860E9
:1012C000114801F037FA11490870114801F032FA5B
:1012D00010490860104801F02DFA104908601048C4
:1012E00001F028FA0F4908600F4801F023FA0F496E
:1012F00008600F4801F01EFA0E49086010BD00009A
:1013000000540008980000200058000880000020C9
:10131000005C00089400002000600008C00000206D
:1013200000640008A800002000680008B000002049
:10133000006C0008B80000200120704700BFFEE7E5
:1013400010B55D2001F096F9002801D001F048F8B1
:10135000074800F02BF8042000F01CF87D20000165
:1013600000F01EF800F00EF800F004F810BD0000C8
:10137000555500000148024908607047CCCC000078
:10138000003000400148024908607047AAAA0000E6
:1013900000300040014948607047000000300040C4
:1013A0000149886070470000003000400149086032
:1013B000704700000030004010B50446FFF7D4FD30
:1013C0003520FFF747FD2046FFF74AFD3520FFF7A0
:1013D00041FDFFF789FD10BD10B50248007800F00F
:1013E00077F910BD8000002070B50024002526E0AC
:1013F000FFF746FB2846691CCDB24000A149085EB4
:10140000A100A14A50502846691CCDB240009D4918
:10141000085EA1009D4A50502846691CCDB240008C
:101420009849085EA1009A4A5050601CC4B200BF9F
:10143000984801F077FC2D2109018842F8D3032C4C
:10144000D6DBFFF71DFB2846691CCDB240008D4955
:10145000085EA1008C4A50502846691CCDB240005D
:101460008849085EA100894A50502846691CCDB2BF
:1014700040008449085EA100854A5050601CC4B2F7
:10148000002085490870002400257F4909687E4AAC
:10149000526889187C4A926889187B4AD2688918F0
:1014A0008808FEF725FF7D49097889007C4A50505D
:1014B00076490968754A52688918744A9268891889
:1014C000724AD26889188808FEF712FF73490978B2
:1014D0008900744A50506E4909686D4A52688918EB
:1014E0006B4A926889186A4AD26889188808FEF798
:1014F000FFFE6A49097889006B4A505067480078B6
:10150000401C6649087008460078022875DB0020F8
:101510000870634A51681068FEF728FF07D8604AD0
:1015200051681068FEF761FE6049086006E05C4A99
:1015300011685068FEF759FE5C490860594A5168C5
:101540001068FEF713FF07D8564A51681068FEF777
:101550004CFE5749086006E0524A11685068FEF791
:1015600044FE53490860504A51681068FEF7FEFE79
:1015700007D84D4A51681068FEF737FE4D4908609C
:1015800006E0494A11685068FEF72FFE4949086095
:101590004748016845480068FEF7E8FE04D843481C
:1015A00000684549086003E0414800684249086016
:1015B0004048016840480068FEF7CEFE03D83D4829
:1015C00000683D490860394801683B480068FEF7FB
:1015D000C3FE13D132490868FEF791FE374908600F
:1015E00000203749087035480168364801F0FAFB99
:1015F00033480178344801F0F5FB34E02C480168A9
:101600002D480068FEF7A8FE13D126490868FEF7AA
:1016100076FE2A4908600120294908702748016898
:10162000284801F0DFFB26480178274801F0DAFB63
:1016300019E02048016820480068FEF78DFE12D1AD
:1016400019490868FEF75BFE1C49086002201C4926
:1016500008701A4801681B4801F0C4FB184801785B
:10166000194801F0BFFB00201849087001F0B6FCD2
:1016700000BF084801F056FB2D2109018842F8D32C
:1016800070BD0000E80700200C0800201C080020A6
:101690002C080020000400400E000020A6000020BE
:1016A0004C000020540000205C000020640000205A
:1016B000680000206C0000207000002098000020CE
:1016C000800000200054000800580008A0000020FE
:1016D00070B50546002D7DD10021FE4801F038FB94
:1016E000012204210920C006FFF7DEFD0920C00603
:1016F000808AF94908400921C9068882002201210F
:1017000089020920C006FFF7CFFD0920C006808AA4
:10171000802108430921C906888200BFED4801F0F5
:1017200001FB0F28FAD30920C006808AEA498031DC
:1017300008400921C90688820020E8490870E84865
:10174000FEF726FF00BFE54800780028FBD0002008
:10175000E249087000BFDF4801F0E4FA6428FAD3D8
:10176000002204210920C006FFF79EFDDD48017814
:101770000078401CDB4A10704800DB49085EDB49FA
:1017800009788900DA4A5050D8480078401CD74977
:10179000087008460078042808DA00BFCD4801F038
:1017A000C1FA2D2109018842F8D335E3CF480078EA
:1017B0000328FADD0020CF490870CC490870C949D8
:1017C0000870CB480068CA4949684018C849896808
:1017D000401800E036E1C649C96840188008C6498B
:1017E0000860C6490968062251430846C917490FCF
:1017F0000918C9100C463C3C002C00DC0024BE48F3
:101800000068A04207DCBC4800687D21C900401A7E
:10181000B949086014E0B94909680A2251430846E9
:10182000C917490F0918C9103C31B34A12689142CF
:1018300006DCB14800687D21C9004018AE49086047
:10184000AD480068002802DC0020AB490860AA48C7
:101850000068AB4909788900AA4A5050A848007826
:10186000800011460858A84900228A5E904207DD90
:10187000A34800788000A349085A00B2A249088012
:101880009F48007880009F490858A04900228A5E3E
:10189000904207DA9A48007880009A49085A00B2C4
:1018A0009A49088096480078401C95490870084677
:1018B000007807280FDD002008709349085E9349DF
:1018C00000228A5E801A9249086000208E490880B2
:1018D00090488E490880884800688F4909788900B7
:1018E0008E4A50508C4800788000114608588C4928
:1018F00000228A5E904207DD874800788000874991
:10190000085A00B2864908808348007880008349DD
:101910000858844900228A5E904207DA7E4800789F
:1019200080007E49085A00B27E4908807A480078D3
:10193000401C794908700846007803280FDD002014
:1019400008707749085E774900228A5E801A7649D6
:1019500008600020724908806E4872490880674913
:101960000968062251430846C917490F0918C910CA
:10197000674A1268891A0C46283C052C00DA0524AF
:101980005E4A126806235A431146D217520F521864
:10199000D210594B1B689A421DDA584A0A23106824
:1019A0005843C217520F1218D210534B1B689A4259
:1019B00011DD00205D4908705D480078401C5C49DD
:1019C000087008460078042829DB002008700120F0
:1019D0005849087023E048490968A1420FDD47498A
:1019E0000A2208685043C117490F0918C910484A0C
:1019F000126889182831404A126891420FDC002091
:101A00004B49087049480078401C4849087008460E
:101A10000078042803DB0020087046490870FFF7AF
:101A2000B1FC00F0F5FEFFF787FC4349087001F0B8
:101A3000D5FA00BF274801F075F92D210901884228
:101A4000F8D3D1E3012D79D10021224801F080F9AA
:101A5000012204210920C006FFF726FC0920C00648
:101A6000808A1D49803108400921C90688820022E8
:101A7000A9020920C006FFF717FC0920C006808ACA
:101A8000290208430921C906888200BF114801F0D4
:101A900049F90F28FAD30920C006808A0E49084068
:101AA0000921C906888200200C4908700C48FEF7FD
:101AB0006FFD00BF094800780028FBD000200749CF
:101AC000087000BF034801F02DF96428FAD3002202
:101AD000042134E000040040FFFE0000100000205C
:101AE0000024014046010020E807002047010020B3
:101AF0000C0800200E000020140100209800002097
:101B0000240100203C0800202001002022010020A8
:101B100028010020FF0F0000300100205C08002099
:101B20002C0100202E01002034010020450100205E
:101B30004401002048000020C80000206DE1092079
:101B4000C006FFF7B1FBFE4801780078401CFC4A54
:101B500010704800FB49085EFB4909788900FB4A80
:101B60005050F9480078401CF74908700846007842
:101B7000042808DA00BFF64801F0D4F82D21090145
:101B80008842F8D330E3F04800780328FADD0020DB
:101B9000F0490870EC490870E9490870EB480068A2
:101BA000EA4949684018E94989684018E749C9681D
:101BB00040188008E8490860E8490968062251434E
:101BC0000846C917490F0918C9100C463C3C002C9F
:101BD00000DC0024E0480068A04207DCDE48006822
:101BE0007D21C900401ADC49086014E0DB4909681E
:101BF0000A2251430846C917490F0918C9103C3138
:101C0000D54A1268914206DCD34800687D21C9009C
:101C10004018D1490860D0480068002802DC002044
:101C2000CD490860CC480068CD4909788900CD4A83
:101C30005050CB480078800011460858CA4900220D
:101C40008A5E904207DDC64800788000C549085A80
:101C500000B2C5490880C24800788000C1490858D0
:101C6000C24900228A5E904207DABD4800788000AF
:101C7000BC49085A00B2BD490880B9480078401CE8
:101C8000B74908700846007807280FDD0020087063
:101C9000B549085EB54900228A5E801AB4490860D9
:101CA0000020B1490880B348B0490880AA480068BC
:101CB000B14909788900B14A5050AF480078800096
:101CC00011460858AE4900228A5E904207DDAA48B4
:101CD00000788000A949085A00B2A9490880A6489E
:101CE00000788000A5490858A64900228A5E9042E3
:101CF00007DAA14800788000A049085A00B2A1493B
:101D000008809D480078401C9B4908700846007870
:101D100003280FDD002008709949085E99490022C8
:101D20008A5E801A98490860002095490880914889
:101D30009449088089490968062251430846C91711
:101D4000490F0918C9108A4A1268891A0C46283C9A
:101D5000052C00DA0524814A126806235A431146ED
:101D6000D217520F5218D2107B4B1B689A421DDAC1
:101D70007A4A0A2310685843C217520F1218D21019
:101D8000754B1B689A4211DD00208049087080481D
:101D90000078401C7E49087008460078042829DB3A
:101DA0000020087001207B49087023E06A49096817
:101DB000A1420FDD69490A2208685043C117490F43
:101DC0000918C9106A4A126889182831624A1268CB
:101DD00091420FDC00206E4908706C480078401C6E
:101DE0006A49087008460078042803DB0020087060
:101DF00068490870FFF7C6FA00F00AFDFFF79CFA81
:101E00006549087001F0EAF800BF514800F08AFF08
:101E10002D2109018842F8D3E6E1022DFCD10021F1
:101E20004B4800F095FF012204210920C006FFF76E
:101E30003BFA0920C006808A584908400921C90692
:101E400088820846808A5549803908400921C90698
:101E50008882012291020920C006FFF725FA00BFFF
:101E60003B4800F05FFF0F28FAD3002201218902CE
:101E70000920C006FFF718FA0020494908704948B0
:101E8000FEF786FB00BF464800780028FBD0002004
:101E90004349087000BF2E4800F044FF6428FAD37D
:101EA000002204210920C006FFF7FEF9244801782A
:101EB0000078401C224A107048002249085E2249DE
:101EC00009788900214A50501F480078401C1E495B
:101ED000087008460078042808DA00BF1C4800F0A3
:101EE00021FF2D2109018842F8D37DE116480078B1
:101EF000032891DD00201749087013490870104924
:101F00000870124800681149496840180F498968EB
:101F100040180E49C968401880080F4908600F49E9
:101F20000968062251430846C917490F0918C91004
:101F30000C463C3C002C00DC00240748006833E0E1
:101F400046010020E8070020470100200C0800207F
:101F5000000400400E000020140100209800002022
:101F6000240100203C080020200100202201002044
:101F700028010020FF0F0000300100205C08002035
:101F80002C0100202E0100203401002045010020FA
:101F90004401002048000020C80000207FFF00000E
:101FA0001000002000240140A04207DC8F48006898
:101FB0007D21C900401A8D49086014E08C490968E8
:101FC0000A2251430846C917490F0918C9103C3164
:101FD000864A1268914206DC844800687D21C90067
:101FE00040188249086081480068002802DC00200F
:101FF0007E4908607D4800687E49097889007E4AEC
:1020000050507C4800788000114608587B490022D7
:102010008A5E904207DD7748007880007649085A4A
:1020200000B27649088073480078800072490858E9
:10203000734900228A5E904207DA6E480078800079
:102040006D49085A00B26E4908806A480078401C01
:10205000684908700846007807280FDD00200870DE
:102060006649085E664900228A5E801A65490860F2
:102070000020624908806448614908805B48006824
:10208000624909788900624A5050604800788000AF
:10209000114608585F4900228A5E904207DD5B487E
:1020A000007880005A49085A00B25A4908805748B7
:1020B0000078800056490858574900228A5E9042AD
:1020C00007DA5248007880005149085A00B2524954
:1020D00008804E480078401C4C490870084600783B
:1020E00003280FDD002008704A49085E4A49002293
:1020F0008A5E801A494908600020464908804248A3
:10210000454908803A490968062251430846C917DB
:10211000490F0918C9103B4A1268891A0C46283C15
:10212000052C00DA0524324A126806235A43114668
:10213000D217520F5218D2102C4B1B689A421DDA3C
:102140002B4A0A2310685843C217520F1218D21094
:10215000264B1B689A4211DD002031490870314836
:102160000078401C2F49087008460078042829DBB5
:102170000020087001202C49087023E01B490968E1
:10218000A1420FDD1A490A2208685043C117490FBE
:102190000918C9101B4A126889182831134A126895
:1021A00091420FDC00201F4908701D480078401C38
:1021B0001B49087008460078042803DB00200870DB
:1021C00019490870FFF7DEF800F022FBFFF7B4F8BA
:1021D0001649087000F002FF00BF154800F0A2FD8C
:1021E0002D2109018842F8D370BD000014010020A0
:1021F00098000020240100203C080020200100203D
:102200002201002028010020FF0F000030010020E3
:102210005C0800202C0100202E0100203401002049
:10222000450100204401002048000020C800002093
:10223000000400407047000000218278002A27D067
:10224000184A03231B02D21803789B109B00D15815
:1022500002789207D30EFF229A400B469343194609
:1022600042789207120E03789B07DB0E9A401143C7
:102270000C4A03231B02D21803789B109B00D150F9
:102280000278D306DB0E01229A40064B1A6007E063
:102290000278D306DB0E01229A40024B80331A608B
:1022A0007047000000E100E07047000010B51348DF
:1022B00000F040FA12490860084600681149884257
:1022C00003DC0F480068002804DA00200C4908608D
:1022D00000F048FA0A480068401C094908600846AE
:1022E0000168064800F07EFD3220FEF7A9FD044893
:1022F0000068012801DC00F035FA10BD005000082C
:1023000030000020FFFF00000C49496801229203C1
:1023100091430A4A51601146496882B21143074A03
:1023200051601146096B92159143044A116311469D
:10233000096B020C1143014A1163704700100240FF
:10234000002905D0054A52690243044B5A6104E052
:10235000024A52698243014B5A61704700100240A1
:10236000002905D0054AD2690243044BDA6104E032
:10237000024AD2698243014BDA6170470010024081
:10238000002905D0054A12690243044B1A6104E092
:10239000024A12698243014B1A61704700100240E1
:1023A000002905D0054A92690243044B9A6104E072
:1023B000024A92698243014B9A61704700100240C1
:1023C000002905D0054AD2680243044BDA6004E0D4
:1023D000024AD2688243014BDA6070470010024023
:1023E0000348406A012109060843014948627047D1
:1023F0000010024010B501210905481100F07AF9DA
:10240000012000F063F901200006FFF77DFF00BF07
:10241000192000F02FF90028FAD0022000F07CF9F2
:1024200000BF00F04BF90828FBD110BDFEB50446F3
:102430000025002600200290019000900027864889
:1024400040680C2108400546002D06D0042D07D019
:10245000082D08D00C2D2CD128E0804820602BE0DE
:102460007E48206028E07C4840680F2189040840AD
:102470000646794840680321C90308400290B00C21
:10248000861C0298002803D17548374647430BE065
:102490007148C06A0007000F401C01906F48019905
:1024A000FDF73CFE70430746276005E06D4820605D
:1024B00002E06A48206000BF00BF67484068F02122
:1024C000084005462D096848405D00902068009945
:1024D000C84060606048406807210902084005461E
:1024E0002D0A6148405D009061680098C140A1607C
:1024F0005948006BFF2101310840884202D05B48F7
:10250000E0600DE05448406801218903084088429A
:1025100003D0A0684008E06002E0A0688008E060A6
:102520004D48006B40210840402802D050482061AF
:1025300002E00120C00320614748006B10210840E1
:10254000102802D04548606101E02068606142487F
:10255000006B8007800F002802D1A068A06119E0FD
:102560003D48006B8007800F012802D12068A061E0
:1025700010E03948006B8007800F022802D18003E9
:10258000A06107E03448006B8007800F032801D169
:102590003248A0613048006B03210904084000283C
:1025A00002D1A068E06120E02B48006B0321090400
:1025B000084001210904884202D12068E06114E04A
:1025C0002548006B03210904084001214904884281
:1025D00002D18010E06108E01F48006B032109046C
:1025E0000840884201D11D48E0611B48006B03216F
:1025F00089040840002802D1A068206220E0164823
:10260000006B03218904084001218904884202D11A
:102610002068206214E01048006B03218904084000
:102620000121C904884202D10011206208E00A4851
:10263000006B032189040840884201D107482062C9
:102640000548006B80210840802802D00548606260
:1026500000E06762FEBD00000010024000127A0038
:1026600000093D00006CDC02A4010020809FD50021
:102670001280000010B502460021002300205111F5
:10268000002902D10C4C23680BE0012902D10A4C2D
:10269000236A06E0022902D1074C636A01E0064C76
:1026A000636BD106C90E01248C401C40002C01D064
:1026B000012000E0002010BD0010024002484068E8
:1026C0000C2108407047000000100240002807D08D
:1026D00007490968012212061143054A116006E004
:1026E00003490968012212069143014A11607047AB
:1026F00000100240074A52687B23DB039A43054BD4
:102700005A601A46526803460B431A43014B5A60FB
:10271000704700000010024001460020044A506843
:102720008008800002460A431046014A5060704704
:102730000010024010B501460B460A460868084CD6
:10274000206004E00A46091D0868054C2060044822
:102750000068401C0028F5D11068014C206010BDB5
:10276000A001002010B5FF20F5301B4908600020B3
:102770001A490870FF20F5301949086000201949EE
:102780000860194908601949086019490860124829
:102790000168184800F026FB10480178164800F040
:1027A00021FB0F480168154800F01CFB0D4801682B
:1027B000134800F017FB0C480168124800F012FBA8
:1027C0000A480168104800F00DFB094801680F48ED
:1027D00000F008FB10BD00009800002080000020E1
:1027E00094000020C0000020A8000020B0000020BD
:1027F000B80000200054000800580008005C0008E1
:10280000006000080064000800680008006C000810
:1028100010B52B480078012828D12A480068502894
:102820004CDC294929480068FDF7A0FD0AD2284858
:10283000007800F075F8012208210920C006FEF793
:1028400033FD3BE0204921480068FDF785FD35D880
:10285000002208210920C006FEF726FD00220121E2
:1028600009030920C006FEF71FFD27E01448007881
:10287000002823D11348006850281FDC1548006841
:102880001E280ADD1248007800F04AF801220821CB
:102890000920C006FEF708FD10E00E4800681E285B
:1028A0000CDC002208210920C006FEF7FDFC0022F6
:1028B000012109030920C006FEF7F6FC10BD000047
:1028C000C80000203401002000003443EC00002048
:1028D00048000020140100207047000010B50E4889
:1028E0000078002816DD012109030920C006FEF743
:1028F000BAFC04462246012109030920C006FEF75E
:10290000D3FC06480078002802D0FDF7C5FE01E0A0
:10291000FEF76AFD10BD0000A0000020C8000020E6
:1029200010B50446012C06D1012201030920C0067E
:10293000FEF7BAFC06E00022012109030920C006C7
:10294000FEF7B2FC10BD00000CB500200190009015
:10295000314800680121090408432F49086000BF7D
:102960002D48006801214904084000900198401C4E
:1029700001900098002804D105210903019888429C
:10298000EED125480068012149040840002802D002
:102990000120009001E0002000900098012839D12A
:1029A00011201E4908601C4840681B4948600846C1
:1029B00040684860084640687F21C903884316493B
:1029C00048600846406811210904084312494860DC
:1029D000084600680121090608430F49086000BF46
:1029E0000D4800680121490608400028F8D00A482F
:1029F0004068800880000849486008464068022115
:102A000008430549486000BF034840680C2108405E
:102A10000828F9D10CBD000000100240002002403F
:102A20007047000010B51B48006801210843194990
:102A3000086008464068184908401649486008463A
:102A400000681649084013490860084600680121DB
:102A5000890488430F490860084640683F210904FB
:102A600088430C4948600846C06A00090001C862F2
:102A70000846006BFF215431884306490863084625
:102A8000406B40084000486300208860FFF75CFF0F
:102A900010BD0000001002400CB8FF08FFFFF6FE5A
:102AA0001FB501210802FFF75BFC114800F0B8F8E0
:102AB000132168460170012181704170FFF7BCFB52
:102AC00001A800F085F9002168468181C1807D2040
:102AD000C00002901721684681800021817301A9FE
:102AE000034800F037F90121014800F08BF81FBDC1
:102AF0000020004010B501210B4800F016F9002815
:102B000010D00A480088401C084908800846008800
:102B10000A2803DB0020088000F060FA0121024847
:102B200000F06DF810BD000000200040A40000205F
:102B300010B501210B4800F0F8F8012803D101215C
:102B4000084800F059F80421064800F0EEF8002883
:102B500006D00548FDF71CFD0421024800F04CF8A2
:102B600010BD0000002C01400024014010B50121DF
:102B7000880700F0DAF8002803D00121880700F068
:102B80003BF810BD1FB501210220FFF7E9FB102122
:102B9000684601700121817004214170FFF74CFBF0
:102BA0000C4800F03DF801A800F012F90021684639
:102BB0008181C180084802900121684681800021FE
:102BC000817301A9034800F0C5F80121014800F014
:102BD00019F81FBD0004004060EA000010B5012193
:102BE000044800F0A2F8002803D00121014800F0B9
:102BF00006F810BD00040040CA4302827047CA4371
:102C000002827047002904D0028801231A430280FF
:102C100003E00288014B1A4002807047FEFF00006B
:102C200010B504463748844208D10121C014FFF78B
:102C3000C7FB0021E014FFF7C3FB62E0012080071F
:102C4000844208D101210846FFF79AFB00210120A8
:102C5000FFF796FB55E02C48844208D10121022061
:102C6000FFF78EFB00210220FFF78AFB49E027488F
:102C7000844208D101211020FFF782FB002110209F
:102C8000FFF77EFB3DE02248844208D1012120204D
:102C9000FFF776FB00212020FFF772FB31E01D4893
:102CA000844208D101218015FFF76AFB0021A0159D
:102CB000FFF766FB25E01848844209D1012108048A
:102CC000FFF77EFB002101200004FFF779FB18E0ED
:102CD0001248844209D101214804FFF771FB002109
:102CE00001204004FFF76CFB0BE00D48844208D143
:102CF00001218804FFF764FB002101208004FFF715
:102D00005FFB10BD002C014000040040001000409B
:102D100000140040002000400040014000440140F9
:102D2000004801400146486A704730B5024600201D
:102D300000230024158A0D402B4695890D402C4612
:102D4000002B03D0002C01D0012000E0002030BD7A
:102D50004162704700220288154B984206D0012339
:102D60009B07984202D0134B984203D1124B1A4052
:102D70004B881A43114B984203D0114B1A400B89D0
:102D80001A4302804B68C3620B880385084B984244
:102D900008D00C4B984205D00B4B984202D00B4BFD
:102DA000984201D18B7A0386012383827047000009
:102DB000002C0140000400408FFF00000010004084
:102DC000FFFC000000400140004401400048014079
:102DD0000021C9434160002101800181418081724D
:102DE0007047000070B504460E46254620680C4921
:102DF00008600BE0241D601B01218902884202D972
:102E00002846FEF7D9FA206805490860044800689A
:102E1000401C0028EED13146204600F003F870BD7A
:102E2000A001002070B504460D46FEF79DF8352040
:102E3000FEF710F829462046FEF760F83520FEF729
:102E400009F8FEF751F870BD02E008C8121F08C16A
:102E5000002AFAD170477047002001E001C1121F1B
:102E6000002AFBD17047000000B587B0012148025D
:102E7000FFF796FA1848FDF721FB01A8FDF78DFB37
:102E800000206946087205900190069001A9124839
:102E9000FDF75AFB01211048FDF76CFB012211469A
:102EA0000D48FDF7DEFA0C48FDF718FB01210A4832
:102EB000FDF7E3FA00BF09490748FDF72DFB00289D
:102EC000F9D001210448FDF7E4FA02210248FDF798
:102ED000ECFA07B000BD0000002401400100000131
:102EE00000B58DB001210846FFF72AFA092168468E
:102EF0000171012181710021417101A8FFF79CF945
:102F00001748FDF73FFE02A8FDF732FF01200590AC
:102F1000002004900C901348039001208002099037
:102F20008020079020200A900F480290801508907A
:102F300000200690012040030B9002A90848FDF7ED
:102F4000F7FE012202210648FDF7E8FE0220FDF708
:102F5000FBFD01210248FDF707FE0DB000BD00009A
:102F600008000240B4010020402401401CB50121AA
:102F70004804FFF7E5F96846FEF78AF9012000905A
:102F80000321684601710021817141710121C171E4
:102F900069460920C006FEF7F0F81CBD10B5FFF722
:102FA00029FAFEF7A8F8FDF700FB0948FFF73EFAFB
:102FB0000848FDF745FFFEF7C3F9FDF7FBFF06499B
:102FC0000870FFF773F9FDF7E1FE002010BD000067
:102FD000C0070020881300001100002010B5102148
:102FE0000920C006FEF73FF9012805D118480088DE
:102FF000401C174908802AE015480088642807DD2E
:1030000013480078134908700020114908801EE019
:103010000F48008864280BDA0D480088322807DD45
:103020000B4800780B4908700020094908800EE021
:103030000748008832280ADA05480088022806DD99
:10304000034800780349087000200149088010BD3A
:10305000A2000020A000002078300008000000201E
:10306000B401000028040008AC300008B4010020BE
:10307000BC0A0000582E000801153AACF7FF1F43A8
:103080001910191802752033F401032FF401025AA4
:1030900001B3FF0FD3FF0F32320269121D01020389
:0C30A000040102030406070809000000F8
:04000005080000B13E
:00000001FF
