:020000040800F2
:10000000700C0020C5000008012200081D13000824
:1000100000000000000000000000000000000000E0
:10002000000000000000000000000000D9280008C7
:100030000000000000000000A9220008212A00089A
:10004000F5000008F5000008F5000008F5000008BC
:10005000F5000008F5000008F5000008F5000008AC
:1000600000000000DD0A0008F5000008F5000008A7
:10007000F5000008312B0008F50000086D2B000882
:10008000DD2B00080000000000000000F52A000839
:1000900000000000F5000008F5000008F500000869
:1000A00000000000F500000800000000F500000856
:1000B0000348854600F0A6F9004800479D2F000838
:1000C000700C00200C4880F308880C480168090E69
:1000D0000B4A914205D10B480B4901600B480C4972
:1000E00001600C4880470C480047FEE7FEE7FEE74A
:1000F000FEE7FEE7FEE70000700C002004000000B1
:100100001F00000018100240010000000000014024
:1001100000000000252A0008B100000830B50B4699
:10012000014600202022012409E00D46D5409D42D1
:1001300005D31D469540491B254695404019154657
:10014000521E002DF1DC30BDF8B502464A40D40FF6
:1001500042004B0052085B089A4202D2024608460F
:1001600011464A0023D0C30D4A00DDB2120EAD1A6B
:10017000202D35DA49020126490AF6058A19002C94
:1001800000D0524220214F1B1146B9402A4110187D
:10019000C20D9A4221D0002C17D0012D08DCDA05BF
:1001A000801AD20F8019D207DBB200F0F1F8F8BD47
:1001B000DA05801A012340001B06C01880185A4235
:1001C0008018CA0F1043490007E04908C2071143CD
:1001D000DA05801A80194008801800F0D1F8F8BDBF
:1001E00061000122511A001BF7E70122D20751409A
:1001F000AAE70122D2075040A6E7024670B54A405E
:10020000D30FDB0740002DD04A002AD0010E140E78
:10021000000212020919400A520A8418E501044634
:100220005443000A120A2E045043A4194219200C08
:10023000C543AA18120C0125AD03521C5219120411
:100240007F39240400D0521C104301D44000491EC1
:10025000C2B20C06C0092018401C4008802A02D0F7
:1002600003E0002070BD40084000002900DA0020B3
:10027000184370BD70B502464A40D50F40004A0091
:10028000ED0740085208002814D0002A12D0C40DEF
:10029000D30D41020120C0055202490A520AE41A54
:1002A000091812187D34914201D3641C00E0490002
:1002B000002C01DA002070BD0023914201D3891A7D
:1002C0000343400849000028F7D100290AD0914291
:1002D00002D10121C90705E0914201D2012101E0CB
:1002E0000121C943E005C018401900F049F870BD6C
:1002F00010B500229623114600F04AF810BDC20F37
:10030000410040020123400ADB05D207090EC01854
:100310007F2901DA00207047962903DC9623591AB9
:10032000C84001E096398840002AF4D04042704726
:10033000410040020122400AD205090E80187F299F
:1003400001DA00207047962903DC9622511AC84032
:1003500070479639884070470122D207002800DB99
:10036000101A002900DB511A814270470122D2077E
:10037000002800DB101A002900DB511A8842704760
:10038000002904DA401C490001D1400840007047B0
:1003900070B40024050C05D11024000402D10029FA
:1003A00021D01124050E01D100020834050F01D11E
:1003B0000001241D850F01D18000A41C002801DB51
:1003C0004000641C002908D020252E1B0D46F54056
:1003D000A14000D001212943084301061B1B000A4C
:1003E000DB1D02D5002070BC7047DB051818801893
:1003F0000029F8DA401C4900F5D170BC40084000E3
:1004000070470000064C0125064E05E0E36807CC66
:100410002B430C3C98471034B442F7D3FFF74CFE03
:10042000583000087830000830B58C180278401C2D
:1004300013071B0F01D10378401C120906D1027863
:10044000401C03E005780D70401C491C5B1EF9D16F
:1004500001E00B70491C521EFBD1A142E6D30020E3
:1004600030BD10B50B460021846A1C43846200BF76
:100470000C4614432146416110BD002904D0826816
:1004800001231A43826003E0826802231A438260D8
:100490007047002904D0C26801231A43C26003E0F8
:1004A000C26852085200C2607047C26802239A4371
:1004B000C260C2680A43C2607047000010B50446BB
:1004C0000548844207D10121401501F079FF002140
:1004D000601501F075FF10BD0024014030B50146E4
:1004E0000020002200238C680125ED072C438C603E
:1004F00000BF8C68E30FDB07521C0F242403A242C9
:1005000001D0002BF5D18C68E40FE407002C01D159
:10051000086C00E0002030BD30B50246002000230A
:10052000012424060C40002C05D0946801252D06DA
:10053000AC43234600E013681C460C40002C01D05D
:10054000012000E0002030BD10B50022C268084B39
:100550001A400C7964030B6823438C682343CC68EE
:1005600023430C6923434C6923431A43C26010BDE3
:1005700003D2FFFF002905D0C26801231B031A43E1
:10058000C26004E0C26801231B039A43C260704743
:10059000816804221143816070470021016001716C
:1005A0008160C16001614161704710B502F0DEFCFD
:1005B00002F05AFC02F094FC02F072FA02F0E2FA45
:1005C00000F013FE00F06EFD10BD000010B500F04D
:1005D00057FA284801780078401C264A10704800D5
:1005E0002549085E254909788900254A5050214847
:1005F00001780078401C1F4A107048001E49085EB0
:100600001E49097889001F4A50501A48017800781D
:10061000401C184A107048001749085E17490978AD
:100620008900194A505015480078401C1349087039
:1006300008460078042807DA00BF144802F072FB6D
:1006400013498842F9D314E00C480078032810DDE0
:1006500000F088FE02F0DCF800F05EFE0D49087044
:1006600002F0BCFC00BF094802F05CFB084988426C
:10067000F9D310BD42010020E8070020430100200B
:100680000C0800201C0800202C080020000400405A
:10069000B2020000C8000020F8B50024002525E0C3
:1006A00000F0EEF92846691CCDB24000D549085E3D
:1006B000A100D54A50502846691CCDB24000D1490E
:1006C000085EA100D14A50502846691CCDB24000B6
:1006D000CC49085EA100CE4A5050601CC4B200BF95
:1006E000CC4802F01FFBCC498842F9D3032CD7DB5E
:1006F00000F0C6F92846691CCDB24000C149085E29
:10070000A100C14A50502846691CCDB24000BD49E5
:10071000085EA100BD4A50502846691CCDB2400079
:10072000B849085EA100BA4A5050601CC4B200BF6C
:10073000B84802F0F7FAB8498842F9D30020B7491F
:10074000087000240025B0490968AF4A526889182A
:10075000AD4A92688918AC4AD26889188808FFF7B0
:10076000C7FDAF4909788900AE4A5050A7490968CA
:10077000A64A52688918A54A92688918A34AD2687D
:1007800089188808FFF7B4FDA54909788900A64AA9
:1007900050509F4909689E4A526889189C4A92683D
:1007A00089189B4AD26889188808FFF7A1FD9C49DF
:1007B000097889009D4A5050994A127892009A4BC4
:1007C0009958974A12789200964B9858FFF7BCFCBC
:1007D0000746934800788000944A11583846FFF73E
:1007E000B3FC0646FFF7A4FD8D4909788900904ABD
:1007F00050508B49097889005058FFF779FD07461A
:10080000874800788000874A11588B20C005FFF781
:10081000F4FC39460090FFF72DFD0646FFF788FDF2
:100820007F4909788900834A50507D4909788900B9
:100830007F4A5058FFF75CFD0746794800788000F2
:10084000794A11588B20C005FFF7D7FC3946009034
:10085000FFF710FD0646FFF76BFD71490978890027
:10086000754A50506E4909788900714A5058FFF70F
:100870003FFD07466A48007880006C4A11588B207B
:10088000C005FFF7BAFC39460090FFF7F3FC0646B7
:10089000FFF74EFD624909788900684A5050604868
:1008A0000078401C5E49087008460078022878DB12
:1008B000002008705F4840685E490968884207D98F
:1008C0005C4840685B490968401A5D49086006E079
:1008D0005848006857494968401A594908605648BD
:1008E000406855490968884207D9534840685249C9
:1008F0000968401A5349086006E04F4800684E49AD
:100900004968401A4F4908604C4840684B4909689B
:10091000884207D94948406848490968401A4A4905
:10092000086006E04548006844494968401A46495D
:1009300008603F4840683E490968884207D93C48FA
:1009400040683B490968401A4049086006E0384859
:10095000006837494968401A3C4908603B480068CC
:1009600080083A4908603A4800683A4909684018DE
:100970003949096840184000384908603348006820
:1009800037490968401840087D21C900081A2838ED
:100990003449086008460068642803DC6420086065
:1009A00009E021E02F4800687D21C900884202DB70
:1009B00008462C4908601E4801682B4802F012FACC
:1009C0001C480168294802F00DFA1B4801682848B4
:1009D00002F008FA19480168264802F003FA214893
:1009E0000168254802F0FEF900202449087002F051
:1009F000F5FA00BF074802F095F907498842F9D394
:100A0000F8BD0000E80700200C0800201C080020AA
:100A10002C08002000040040B20200000E0000205C
:100A2000A60000204C000020540000205C000020A4
:100A3000C0000020A8000020B0000020B800002066
:100A4000CC000020D0000020D4000020D8000020DE
:100A5000F0000020F4000020F80000200001002039
:100A6000DC00002094000020006000080064000802
:100A700000680008006C0008005C0008A00000206E
:100A800010B50021124802F063F900BF104802F0CF
:100A900049F90528FAD3012204210920C00600F0F3
:100AA000F3FB01F0E7FB00200A4908700A48FFF752
:100AB0006FFD00BF074800780028FBD000200549E3
:100AC0000870002204210920C00600F0DDFB10BDE3
:100AD00000040040100000200024014010B5022056
:100AE00000F0F2F8002813D00A4800880A49081AD2
:100AF00001B20A4802780078401C084B1870500078
:100B0000074A1152012007490870022000F00CF832
:100B100010BD0000B4010020FF0F00000E000020F7
:100B2000E8070020100000200121090701400029EA
:100B300002D00349486001E0024948607047000064
:100B40000004024000000240002904D00268012392
:100B50001A43026003E00268014B1A4002607047CA
:100B6000FEFF00000168554A11400160002101604C
:100B700041608160C1605249884208D150490839BA
:100B800049680F2211434E4A083A516094E04C499B
:100B90001431884208D14A4908394968F022114382
:100BA000474A083A516087E045492831884209D1CF
:100BB0004349083949680F2212021143404A083A52
:100BC000516079E03E493C31884209D13C490839BD
:100BD00049680F2212031143394A083A51606BE009
:100BE00037495031884209D13549083949680F22BF
:100BF00012041143324A083A51605DE030496431D1
:100C0000884209D12E49083949680F22120511433B
:100C10002B4A083A51604FE029497831884209D17E
:100C20002749083949680F2212061143244A083A15
:100C3000516041E02349884208D122490839496876
:100C40000F2211431F4A083A516035E01D49143103
:100C5000884208D11B4908394968F0221143194AD2
:100C6000083A516028E017492831884209D11549CE
:100C7000083949680F2212021143124A083A51609A
:100C80001AE010493C31884209D10E4908394968B7
:100C90000F22120311430B4A083A51600CE0094934
:100CA0005031884208D10749083949680F22120497
:100CB0001143044A083A516070470000FEFF0000EB
:100CC00008000240080402400146002000220123DF
:100CD0001B070B40002B02D0064B1A6801E0064BA5
:100CE0001A6813460B40002B01D0012000E00020C1
:100CF000704700000004024000000240002A03D0B8
:100D000003680B43036002E003688B430360704792
:100D100010B5002202680D4B1A400C6A8B68234301
:100D20000C6923434C6923438C692343CC692343D7
:100D30004C6A23438C6A23431A430260CB684360A6
:100D40000B6883604B68C36010BD00000F80FFFF1D
:100D50000021016041608160C16001614161816188
:100D6000C1610162416281627047000000F092FA45
:100D7000002400E0641C0A2CFCDB42E021480078DF
:100D8000012811DA2048007800280DDC1F4800787F
:100D9000012802D1FFF71AFC33E01C480078002834
:100DA0002FD100F009FB2CE0FFF76AFE00F0DAFA21
:100DB00002F014F9164800881649884213DB002017
:100DC0001349088008210920C00600F046FA0028CF
:100DD00001D1012000E0002005462A460821092013
:100DE000C00600F051FA0A480088401C08490880F3
:100DF00000BF094801F096FF08498842F9D301F085
:100E00006DFDBBE7A6000020A0000020C800002068
:100E1000380100200410000000040040B20200006D
:100E200004E0411E08B2002800DC00E0F9E700BF42
:100E3000704700000149C860704700000020024070
:100E400030B5044604250B20000400F08FF8054659
:100E5000042D17D10C480069022108430A49086192
:100E600008464461006940210843074908610B2096
:100E7000000400F07BF8054603480069022188431E
:100E800001490861284630BD0020024004200D4978
:100E9000C968C907C90F002901D0012010E009491C
:100EA000C96810221140002901D0022008E005493C
:100EB000C96804221140002901D0032000E0042069
:100EC0007047000000200240034800698021084369
:100ED00001490861704700000020024078B50646CD
:100EE0000C460425002000900B20000400F03EF882
:100EF0000546042D24D113480069012108431149F6
:100F0000086134800B20000400F030F80546042D01
:100F100010D1B01C0090200C009908800B20000418
:100F200000F024F8054607480069400840000549DC
:100F3000086105E003480069400840000149086174
:100F4000284678BD002002400548006980210840FD
:100F5000002804D0034802494860034848607047AD
:100F60000020024023016745AB89EFCD10B5034651
:100F70000424FFF78BFF044603E0FFF787FF0446D6
:100F80005B1E012C01D1002BF7D1002B00D10524D1
:100F9000204610BD10B51149114800F029F80F483E
:100FA00000780E494978090240180C4989780904EB
:100FB00040180A49C978090640180A4908600A48D1
:100FC00000680A49086008460068064909688842BE
:100FD00001D1012400E00024204610BD20000020A3
:100FE00000080020240000200070000828000020D5
:100FF0002A4A126812790270284A1268127A4270DC
:10100000264A126852788270244A1268D278C270D6
:10101000224A126812780271204A1268527942718B
:101020001E4A1268927A82711C4A1268D279C27181
:101030001A4A1268527A0272184A126892784272F8
:10104000164A1268D27A8272144A12689279C2726F
:10105000134A1268127803785A400A70104A1268CC
:10106000527883795A40C3795A40037A5A40437A76
:101070005A40837A5A40C37A5A404A70084A1268E2
:10108000927803795A408A70054A1268D278837838
:101090005A4043785A40CA7070470000140000203C
:1010A0001C0000201CB501212320400401F048F958
:1010B000684600F0DDF8802000900121684601714B
:1010C0000021817141710221C17169460920C00668
:1010D00000F043F81CBD1CB501212320400401F0A1
:1010E0002FF9684600F0C4F80120000300900121A8
:1010F00068460171002181714171C1716946092001
:10110000C00600F02AF80120C002009000216846C5
:10111000017141710221C17169460920C00600F0C8
:101120001CF80820009001216846017100214171DE
:101130000221C17169460920C00600F00EF8102096
:10114000009000216846017141710221C171694618
:101150000920C00600F001F81CBDF0B50A460021C8
:101160000023002400BF3DE001258D402B4615687B
:101170001D402C469C4234D11579012D02D01579A1
:10118000022D16D185684F000326BE40B543856009
:1011900055794E00B54086683543856085880126BF
:1011A0008E40B5438580858896798E40B6B23543AA
:1011B000858005684F000326BE40B543056015795C
:1011C0004E00B540066835430560C5684F000326EC
:1011D000BE40B543C560D5794E00B540C6683543BD
:1011E000C560491C1029BFD3F0BD1CB501214804BE
:1011F00001F0A6F8FF20013000900121684601713E
:10120000002181710121C1710321417169460920C9
:10121000C006FFF7A2FF01204002009069460920A6
:10122000C006FFF79AFF012080020090694609205E
:10123000C006FFF792FF0420009069460920C0060F
:10124000FFF78BFF1CBD02460020138A0B40002BCA
:1012500001D0012000E00020704702460020938A60
:101260000B40002B01D0012000E00020704700005F
:101270000449016000210171012141710021817146
:10128000C1717047FFFF0000002A01D0816100E0BA
:101290000185704710B5124801F04CFA11490860F9
:1012A000114801F047FA11490870114801F042FA5B
:1012B00010490860104801F03DFA104908601048D4
:1012C00001F038FA0F4908600F4801F033FA0F496E
:1012D00008600F4801F02EFA0E49086010BD0000AA
:1012E00000540008980000200058000880000020EA
:1012F000005C00089400002000600008C00000208E
:1013000000640008A800002000680008B000002069
:10131000006C0008B80000200120704700BFFEE705
:1013200010B55D2001F0A6F9002801D001F058F8B1
:10133000074800F02BF8042000F01CF87D20000185
:1013400000F01EF800F00EF800F004F810BD0000E8
:10135000555500000148024908607047CCCC000098
:10136000003000400148024908607047AAAA000006
:1013700000300040014948607047000000300040E4
:101380000149886070470000003000400149086052
:10139000704700000030004010B50446FFF7D4FD50
:1013A0003520FFF747FD2046FFF74AFD3520FFF7C0
:1013B00041FDFFF789FD10BD10B50248007800F02F
:1013C00077F910BD8000002070B50024002525E0CD
:1013D000FFF756FB2846691CCDB24000A049085EC5
:1013E000A100A04A50502846691CCDB240009C493B
:1013F000085EA1009C4A50502846691CCDB24000AE
:101400009749085EA100994A5050601CC4B200BFC1
:10141000974801F087FC97498842F9D3032CD7DB22
:10142000FFF72EFB2846691CCDB240008C49085EB0
:10143000A1008C4A50502846691CCDB24000884912
:10144000085EA100884A50502846691CCDB2400071
:101450008349085EA100854A5050601CC4B2002038
:1014600085490870002400257E4909687D4A526834
:1014700089187C4A926889187A4AD268891888083B
:10148000FEF736FF7D49097889007D4A505076493C
:101490000968754A52688918734A92688918724AAD
:1014A000D26889188808FEF723FF744909788900F3
:1014B000744A50506D4909686C4A526889186B4AE1
:1014C00092688918694AD26889188808FEF710FF5F
:1014D0006A49097889006C4A505068480078401C75
:1014E0006649087008460078022875DB00200870FD
:1014F000634A51681068FEF739FF07D8604A51689F
:101500001068FEF772FE6149086006E05C4A1168E7
:101510005068FEF76AFE5D4908605A4A51681068D3
:10152000FEF724FF07D8574A51681068FEF75DFEA2
:101530005749086006E0534A11685068FEF755FEA7
:1015400053490860504A51681068FEF70FFF07D8EA
:101550004D4A51681068FEF748FE4E49086006E0A3
:10156000494A11685068FEF740FE4A4908604848F9
:10157000016846480068FEF7F9FE04D84348006851
:101580004549086003E04248006843490860414813
:10159000016841480068FEF7DFFE03D83D48006857
:1015A0003D490860394801683B480068FEF7D4FEB1
:1015B00013D133490868FEF7A2FE384908600020BD
:1015C0003749087035480168364801F00BFC34484B
:1015D0000178354801F006FC34E02D4801682E48BA
:1015E0000068FEF7B9FE13D126490868FEF787FEAA
:1015F0002A49086001202A490870284801682948BA
:1016000001F0F0FB26480178274801F0EBFB19E0D8
:101610002048016820480068FEF79EFE12D11A4952
:101620000868FEF76CFE1D49086002201C4908701E
:101630001A4801681B4801F0D5FB194801781A487F
:1016400001F0D0FB00201949087001F0C7FC00BF71
:10165000074801F067FB07498842F9D370BD0000D5
:10166000E80700200C0800201C0800202C0800209F
:1016700000040040B20200000E000020A60000207E
:101680004C000020540000205C000020640000207A
:10169000680000206C0000207000002098000020EE
:1016A000800000200054000800580008A00000201E
:1016B00070B50546002D7DD10021FD4801F048FBA5
:1016C000012204210920C006FFF7DEFD0920C00623
:1016D000808AF84908400921C90688820022012130
:1016E00089020920C006FFF7CFFD0122110209205F
:1016F000C006FFF7C9FD00BFED4801F013FB0F283E
:10170000FAD30022FF2101310920C006FFF7BCFDFA
:101710000020E9490870E948FEF73AFF00BFE648B3
:1017200000780028FBD00020E349087000BFE048A3
:1017300001F0F8FA6428FAD3002204210920C00637
:10174000FFF7A2FDDE4801780078401CDC4A1070EB
:101750004800DC49085EDC4909788900DB4A5050C2
:10176000D9480078401CD8490870084600780428F9
:1017700007DA00BFCE4801F0D5FAD5498842F9D33F
:1017800031E3D14800780328FADD0020D149087000
:10179000CD490870CA490870CC480068CB494968EF
:1017A0004018CA4989684018C849C9684018800863
:1017B000C94900E030E10860C84909680622514380
:1017C0000846C917490F0918C9100C463C3C002CA3
:1017D00000DC0024C0480068A04207DCBE48006866
:1017E0007D21C900401ABC49086014E0BB49096862
:1017F0000A2251430846C917490F0918C9103C313C
:10180000B54A1268914206DCB34800687D21C900E0
:101810004018B1490860B0480068002802DC002088
:10182000AD490860AC480068AD4909788900AD4A07
:101830005050AB480078800011460858AA49002251
:101840008A5E904207DDA64800788000A549085AC4
:1018500000B2A5490880A24800788000A149085834
:10186000A24900228A5E904207DA9D4800788000F3
:101870009C49085A00B29D49088099480078401C4C
:10188000974908700846007807280FDD0020087087
:101890009549085E954900228A5E801A944908603D
:1018A0000020914908809348904908808A48006840
:1018B000914909788900914A50508F4800788000FA
:1018C000114608588E4900228A5E904207DD8A48F8
:1018D000007880008949085A00B289490880864802
:1018E0000078800085490858864900228A5E904227
:1018F00007DA8148007880008049085A00B281499F
:1019000008807D480078401C7B49087008460078B4
:1019100003280FDD002008707949085E794900220C
:101920008A5E801A784908600020754908807148ED
:101930007449088069490968062251430846C91755
:10194000490F0918C9106A4A1268891A0C46283CBE
:10195000052C00DA0524614A126806235A43114611
:10196000D217520F5218D2105B4B1B689A421DDAE5
:101970005A4A0A2310685843C217520F1218D2103D
:10198000554B1B689A4211DD002060490870604881
:101990000078401C5E49087008460078042829DB5E
:1019A0000020087001205B49087023E04A4909685B
:1019B000A1420FDD49490A2208685043C117490F67
:1019C0000918C9104A4A126889182831424A12680F
:1019D00091420FDC00204E4908704C480078401CB2
:1019E0004A49087008460078042803DB0020087084
:1019F00048490870FFF7B6FC00F00AFFFFF78CFCBF
:101A00004549087001F0EAFA00BF294801F08AF957
:101A10002F498842F9D3CCE3012D7FD100212448FE
:101A200001F096F9012204210920C006FFF72CFCE1
:101A3000002229020920C006FFF726FC0022A90285
:101A40000920C006FFF720FC0920C006808A8021FB
:101A500008430921C906888200BF154801F062F9D0
:101A60000F28FAD30920C006808A124908400921AC
:101A7000C90688820020104908701048FEF788FDCA
:101A800000BF0D4800780028FBD000200A490870EC
:101A900000BF074801F046F96428FAD30022042168
:101AA0000920C006FFF7F0FB05480178007836E012
:101AB000000400407FFF00001000002000240140CF
:101AC00046010020E8070020470100200C08002004
:101AD000B20200000E000020140100209800002037
:101AE000240100203C0800202001002022010020C9
:101AF00028010020FF0F0000300100205C080020BA
:101B00002C0100202E01002034010020450100207E
:101B10004401002048000020C800002064E1401C6F
:101B2000FE4A10704800FE49085EFE4909788900A7
:101B3000FD4A5050FB480078401CFA49087008469E
:101B40000078042807DA00BFF84801F0EBF8F849FC
:101B50008842F9D32DE3F34800780328FADD00200A
:101B6000F4490870EF490870EC490870EE480068C5
:101B7000ED4949684018EC4989684018EA49C96844
:101B800040188008EC490860EC4909680622514376
:101B90000846C917490F0918C9100C463C3C002CCF
:101BA00000DC0024E4480068A04207DCE24800684A
:101BB0007D21C900401AE049086014E0DF49096846
:101BC0000A2251430846C917490F0918C9103C3168
:101BD000D94A1268914206DCD74800687D21C900C5
:101BE0004018D5490860D4480068002802DC00206D
:101BF000D1490860D0480068D14909788900D14AA4
:101C00005050CF480078800011460858CE49002235
:101C10008A5E904207DDCA4800788000C949085AA8
:101C200000B2C9490880C64800788000C5490858F4
:101C3000C64900228A5E904207DAC14800788000D7
:101C4000C049085A00B2C1490880BD480078401C0C
:101C5000BB4908700846007807280FDD002008708F
:101C6000B949085EB94900228A5E801AB8490860FD
:101C70000020B5490880B748B4490880AE480068DC
:101C8000B54909788900B54A5050B34800788000BA
:101C900011460858B24900228A5E904207DDAE48DC
:101CA00000788000AD49085A00B2AD490880AA48C2
:101CB00000788000A9490858AA4900228A5E90420B
:101CC00007DAA54800788000A449085A00B2A5495F
:101CD0000880A1480078401C9F4908700846007899
:101CE00003280FDD002008709D49085E9D490022F1
:101CF0008A5E801A9C4908600020994908809548AE
:101D0000984908808D490968062251430846C91739
:101D1000490F0918C9108E4A1268891A0C46283CC6
:101D2000052C00DA0524854A126806235A43114619
:101D3000D217520F5218D2107F4B1B689A421DDAED
:101D40007E4A0A2310685843C217520F1218D21045
:101D5000794B1B689A4211DD002084490870844841
:101D60000078401C8249087008460078042829DB66
:101D70000020087001207F49087023E06E4909683F
:101D8000A1420FDD6D490A2208685043C117490F6F
:101D90000918C9106E4A126889182831664A1268F3
:101DA00091420FDC00207249087070480078401C96
:101DB0006E49087008460078042803DB002008708C
:101DC0006C490870FFF7CEFA00F022FDFFF7A4FA85
:101DD0006949087001F002F900BF544800F0A2FF01
:101DE00053498842F9D3E4E1022DFCD100214F4848
:101DF00000F0AEFF012204210920C006FFF744FADB
:101E00000022E9010920C006FFF73EFA0920C006BA
:101E1000808A5A4908400921C90688820122910214
:101E20000920C006FFF730FA00BF404800F07AFFF3
:101E30000F28FAD30022012189020920C006FFF7EA
:101E400023FA00204E4908704E48FEF7A1FB00BF60
:101E50004B4800780028FBD000204949087000BF9B
:101E6000324800F05FFF6428FAD3002204210920E1
:101E7000C006FFF709FA294801780078401C274A74
:101E8000107048002649085E264909788900264ACC
:101E9000505024480078401C2249087008460078B9
:101EA000042807DA00BF214800F03CFF204988429F
:101EB000F9D37EE11B480078032894DD00201D49FA
:101EC00008701849087015490870174800681649C5
:101ED000496840181449896840181349C96840186E
:101EE00080081549086015490968062251430846CB
:101EF000C917490F0918C9100C463C3C002C00DCDE
:101F000000240D480068A0423EDC0B4800687D219B
:101F1000C900401A084908604BE000004601002053
:101F2000E8070020470100200C08002000040040C2
:101F3000B20200000E0000201401002098000020D2
:101F4000240100203C080020200100202201002064
:101F500028010020FF0F0000300100205C08002055
:101F60002C0100202E01002034010020450100201A
:101F70004401002048000020C80000207FFF00002E
:101F800010000020002401408A4909680A225143B8
:101F90000846C917490F0918C9103C31864A12680A
:101FA000914206DC844800687D21C90040188249BE
:101FB000086081480068002802DC00207E49086033
:101FC0007D4800687D49097889007D4A50507B48EA
:101FD00000788000114608587A4900228A5E9042B3
:101FE00007DD7648007880007549085A00B27549C7
:101FF00008807248007880007149085872490022B0
:102000008A5E904207DA6D48007880006C49085A71
:1020100000B26D49088069480078401C6749087023
:102020000846007807280FDD002008706549085E23
:10203000654900228A5E801A64490860002061496F
:1020400008806348604908805B48006861490978F6
:102050008900614A50505F48007880001146085856
:102060005E4900228A5E904207DD5A48007880006F
:102070005949085A00B259490880564800788000EA
:1020800055490858564900228A5E904207DA51485D
:10209000007880005049085A00B2514908804D48E4
:1020A0000078401C4B4908700846007803280FDD73
:1020B000002008704949085E494900228A5E801A5A
:1020C0004849086000204549088041484449088043
:1020D00038490968062251430846C917490F0918AB
:1020E000C9103A4A1268891A0C46283C052C00DAB5
:1020F0000524304A126806235A431146D217520F5C
:102100005218D2102C4B1B689A421DDA294A0A2316
:1021100010685843C217520F1218D210264B1B6872
:102120009A4211DD00203049087030480078401C88
:102130002E49087008460078042829DB0020087022
:1021400001202B49087023E01B490968A1420FDDDB
:1021500018490A2208685043C117490F0918C910C5
:102160001A4A126889182831134A126891420FDC02
:1021700000201E4908701C480078401C1A4908704D
:1021800008460078042803DB00200870184908700E
:10219000FFF7E8F800F03CFBFFF7BEF815490870C0
:1021A00000F01CFF00BF144800F0BCFD134988423A
:1021B000F9D370BD980000201401002024010020F4
:1021C0003C080020200100202201002028010020DE
:1021D000FF0F0000300100205C0800202C010020CF
:1021E0002E01002034010020450100204401002080
:1021F00048000020C800002000040040B202000097
:102200007047000000218278002A27D0184A032353
:102210001B02D21803789B109B00D15802789207BA
:10222000D30EFF229A400B469343194642789207F9
:10223000120E03789B07DB0E9A4011430C4A0323CE
:102240001B02D21803789B109B00D1500278D30652
:10225000DB0E01229A40064B1A6007E00278D30693
:10226000DB0E01229A40024B80331A607047000057
:1022700000E100E0012040020921C906886188616F
:102280008861886188618861886188618861886106
:102290008861886188618861886188618861014995
:1022A00008817047200000487047000010B51348AF
:1022B00000F040FA12490860084600681149884257
:1022C00003DC0F480068002804DA00200C4908608D
:1022D00000F048FA0A480068401C094908600846AE
:1022E0000168064800F07EFD3220FEF799FD0448A3
:1022F0000068012801DC00F035FA10BD005000082C
:1023000030000020FFFF00000C49496801229203C1
:1023100091430A4A51601146496882B21143074A03
:1023200051601146096B92159143044A116311469D
:10233000096B020C1143014A1163704700100240FF
:10234000002905D0054A52690243044B5A6104E052
:10235000024A52698243014B5A61704700100240A1
:10236000002905D0054AD2690243044BDA6104E032
:10237000024AD2698243014BDA6170470010024081
:10238000002905D0054A12690243044B1A6104E092
:10239000024A12698243014B1A61704700100240E1
:1023A000002905D0054A92690243044B9A6104E072
:1023B000024A92698243014B9A61704700100240C1
:1023C000002905D0054AD2680243044BDA6004E0D4
:1023D000024AD2688243014BDA6070470010024023
:1023E0000348406A012109060843014948627047D1
:1023F0000010024010B501210905481100F07AF9DA
:10240000012000F063F901200006FFF77DFF00BF07
:10241000192000F02FF90028FAD0022000F07CF9F2
:1024200000BF00F04BF90828FBD110BDFEB50446F3
:102430000025002600200290019000900027864889
:1024400040680C2108400546002D06D0042D07D019
:10245000082D08D00C2D2CD128E0804820602BE0DE
:102460007E48206028E07C4840680F2189040840AD
:102470000646794840680321C90308400290B00C21
:10248000861C0298002803D17548374647430BE065
:102490007148C06A0007000F401C01906F48019905
:1024A000FDF73CFE70430746276005E06D4820605D
:1024B00002E06A48206000BF00BF67484068F02122
:1024C000084005462D096848405D00902068009945
:1024D000C84060606048406807210902084005461E
:1024E0002D0A6148405D009061680098C140A1607C
:1024F0005948006BFF2101310840884202D05B48F7
:10250000E0600DE05448406801218903084088429A
:1025100003D0A0684008E06002E0A0688008E060A6
:102520004D48006B40210840402802D050482061AF
:1025300002E00120C00320614748006B10210840E1
:10254000102802D04548606101E02068606142487F
:10255000006B8007800F002802D1A068A06119E0FD
:102560003D48006B8007800F012802D12068A061E0
:1025700010E03948006B8007800F022802D18003E9
:10258000A06107E03448006B8007800F032801D169
:102590003248A0613048006B03210904084000283C
:1025A00002D1A068E06120E02B48006B0321090400
:1025B000084001210904884202D12068E06114E04A
:1025C0002548006B03210904084001214904884281
:1025D00002D18010E06108E01F48006B032109046C
:1025E0000840884201D11D48E0611B48006B03216F
:1025F00089040840002802D1A068206220E0164823
:10260000006B03218904084001218904884202D11A
:102610002068206214E01048006B03218904084000
:102620000121C904884202D10011206208E00A4851
:10263000006B032189040840884201D107482062C9
:102640000548006B80210840802802D00548606260
:1026500000E06762FEBD00000010024000127A0038
:1026600000093D00006CDC02A4010020809FD50021
:102670001280000010B502460021002300205111F5
:10268000002902D10C4C23680BE0012902D10A4C2D
:10269000236A06E0022902D1074C636A01E0064C76
:1026A000636BD106C90E01248C401C40002C01D064
:1026B000012000E0002010BD0010024002484068E8
:1026C0000C2108407047000000100240002807D08D
:1026D00007490968012212061143054A116006E004
:1026E00003490968012212069143014A11607047AB
:1026F00000100240074A52687B23DB039A43054BD4
:102700005A601A46526803460B431A43014B5A60FB
:10271000704700000010024001460020044A506843
:102720008008800002460A431046014A5060704704
:102730000010024010B501460B460A460868084CD6
:10274000206004E00A46091D0868054C2060044822
:102750000068401C0028F5D11068014C206010BDB5
:10276000A001002010B5FF20F5301B4908600020B3
:102770001A490870FF20F5301949086000201949EE
:102780000860194908601949086019490860124829
:102790000168184800F026FB10480178164800F040
:1027A00021FB0F480168154800F01CFB0D4801682B
:1027B000134800F017FB0C480168124800F012FBA8
:1027C0000A480168104800F00DFB094801680F48ED
:1027D00000F008FB10BD00009800002080000020E1
:1027E00094000020C0000020A8000020B0000020BD
:1027F000B80000200054000800580008005C0008E1
:10280000006000080064000800680008006C000810
:1028100010B52B480078012828D12A480068502894
:102820004CDC294929480068FDF7A0FD0AD2284858
:10283000007800F075F8012208210920C006FEF793
:1028400023FD3BE0204921480068FDF785FD35D890
:10285000002208210920C006FEF716FD00220121F2
:1028600009030920C006FEF70FFD27E01448007891
:10287000002823D11348006850281FDC1548006841
:102880001E280ADD1248007800F04AF801220821CB
:102890000920C006FEF7F8FC10E00E4800681E286C
:1028A0000CDC002208210920C006FEF7EDFC002206
:1028B000012109030920C006FEF7E6FC10BD000057
:1028C000C80000203401002000003443EC00002048
:1028D00048000020140100207047000010B50E4889
:1028E0000078002816DD012109030920C006FEF743
:1028F000AAFC04462246012109030920C006FEF76E
:10290000C3FC06480078002802D0FDF7C5FE01E0B0
:10291000FEF75AFD10BD0000A0000020C8000020F6
:1029200010B50446012C06D1012201030920C0067E
:10293000FEF7AAFC06E00022012109030920C006D7
:10294000FEF7A2FC10BD00000CB500200190009025
:10295000314800680121090408432F49086000BF7D
:102960002D48006801214904084000900198401C4E
:1029700001900098002804D105210903019888429C
:10298000EED125480068012149040840002802D002
:102990000120009001E0002000900098012839D12A
:1029A00011201E4908601C4840681B4948600846C1
:1029B00040684860084640687F21C903884316493B
:1029C00048600846406811210904084312494860DC
:1029D000084600680121090608430F49086000BF46
:1029E0000D4800680121490608400028F8D00A482F
:1029F0004068800880000849486008464068022115
:102A000008430549486000BF034840680C2108405E
:102A10000828F9D10CBD000000100240002002403F
:102A20007047000010B51B48006801210843194990
:102A3000086008464068184908401649486008463A
:102A400000681649084013490860084600680121DB
:102A5000890488430F490860084640683F210904FB
:102A600088430C4948600846C06A00090001C862F2
:102A70000846006BFF215431884306490863084625
:102A8000406B40084000486300208860FFF75CFF0F
:102A900010BD0000001002400CB8FF08FFFFF6FE5A
:102AA0001FB501210802FFF75BFC114800F0B8F8E0
:102AB000132168460170012181704170FFF7A2FB6C
:102AC00001A800F085F9002168468181C1807D2040
:102AD000C00002901721684681800021817301A9FE
:102AE000034800F037F90121014800F08BF81FBDC1
:102AF0000020004010B501210B4800F016F9002815
:102B000010D00A480088401C084908800846008800
:102B10000A2803DB0020088000F060FA0121024847
:102B200000F06DF810BD000000200040A40000205F
:102B300010B501210B4800F0F8F8012803D101215C
:102B4000084800F059F80421064800F0EEF8002883
:102B500006D00548FDF71CFD0421024800F04CF8A2
:102B600010BD0000002C01400024014010B50121DF
:102B7000880700F0DAF8002803D00121880700F068
:102B80003BF810BD1FB501210220FFF7E9FB102122
:102B9000684601700121817004214170FFF732FB0A
:102BA0000C4800F03DF801A800F012F90021684639
:102BB0008181C180084802900121684681800021FE
:102BC000817301A9034800F0C5F80121014800F014
:102BD00019F81FBD0004004060EA000010B5012193
:102BE000044800F0A2F8002803D00121014800F0B9
:102BF00006F810BD00040040CA4302827047CA4371
:102C000002827047002904D0028801231A430280FF
:102C100003E00288014B1A4002807047FEFF00006B
:102C200010B504463748844208D10121C014FFF78B
:102C3000C7FB0021E014FFF7C3FB62E0012080071F
:102C4000844208D101210846FFF79AFB00210120A8
:102C5000FFF796FB55E02C48844208D10121022061
:102C6000FFF78EFB00210220FFF78AFB49E027488F
:102C7000844208D101211020FFF782FB002110209F
:102C8000FFF77EFB3DE02248844208D1012120204D
:102C9000FFF776FB00212020FFF772FB31E01D4893
:102CA000844208D101218015FFF76AFB0021A0159D
:102CB000FFF766FB25E01848844209D1012108048A
:102CC000FFF77EFB002101200004FFF779FB18E0ED
:102CD0001248844209D101214804FFF771FB002109
:102CE00001204004FFF76CFB0BE00D48844208D143
:102CF00001218804FFF764FB002101208004FFF715
:102D00005FFB10BD002C014000040040001000409B
:102D100000140040002000400040014000440140F9
:102D2000004801400146486A704730B5024600201D
:102D300000230024158A0D402B4695890D402C4612
:102D4000002B03D0002C01D0012000E0002030BD7A
:102D50004162704700220288154B984206D0012339
:102D60009B07984202D0134B984203D1124B1A4052
:102D70004B881A43114B984203D0114B1A400B89D0
:102D80001A4302804B68C3620B880385084B984244
:102D900008D00C4B984205D00B4B984202D00B4BFD
:102DA000984201D18B7A0386012383827047000009
:102DB000002C0140000400408FFF00000010004084
:102DC000FFFC000000400140004401400048014079
:102DD0000021C9434160002101800181418081724D
:102DE0007047000070B504460E46254620680C4921
:102DF00008600BE0241D601B01218902884202D972
:102E00002846FEF7C9FA20680549086004480068AA
:102E1000401C0028EED13146204600F003F870BD7A
:102E2000A001002070B504460D46FEF78DF8352050
:102E3000FEF700F829462046FEF750F83520FDF74A
:102E4000F9FFFEF741F870BD02E008C8121F08C183
:102E5000002AFAD170477047002001E001C1121F1B
:102E6000002AFBD17047000000B587B0012148025D
:102E7000FFF796FA1848FDF721FB01A8FDF78DFB37
:102E800000206946087205900190069001A9124839
:102E9000FDF75AFB01211048FDF76CFB012211469A
:102EA0000D48FDF7DEFA0C48FDF718FB01210A4832
:102EB000FDF7E3FA00BF09490748FDF72DFB00289D
:102EC000F9D001210448FDF7E4FA02210248FDF798
:102ED000ECFA07B000BD0000002401400100000131
:102EE00000B58DB001210846FFF72AFA092168468E
:102EF0000171012181710021417101A8FFF782F95F
:102F00001748FDF72FFE02A8FDF722FF01200590CC
:102F1000002004900C901348039001208002099037
:102F20008020079020200A900F480290801508907A
:102F300000200690012040030B9002A90848FDF7ED
:102F4000E7FE012202210648FDF7D8FE0220FDF728
:102F5000EBFD01210248FDF7F7FD0DB000BD0000BB
:102F600008000240B4010020402401401CB50121AA
:102F70004804FFF7E5F96846FEF77AF9012000906A
:102F80000321684601710021817141710121C171E4
:102F900069460920C006FEF7E0F81CBD10B5FFF732
:102FA00029FAFEF798F8FDF700FB0948FFF73EFA0B
:102FB0000848FDF735FFFEF7B3F9FDF7EBFF0649CB
:102FC0000870FFF773F9FDF7D1FE002010BD000077
:102FD000C0070020881300001100002010B5102148
:102FE0000920C006FEF72FF9012805D118480088EE
:102FF000401C174908802AE015480088642807DD2E
:1030000013480078134908700020114908801EE019
:103010000F48008864280BDA0D480088322807DD45
:103020000B4800780B4908700020094908800EE021
:103030000748008832280ADA05480088022806DD99
:10304000034800780349087000200149088010BD3A
:10305000A2000020A000002078300008000000201E
:10306000B401000028040008AC300008B4010020BE
:10307000BC0A0000582E000801153AACF7FF1F43A8
:103080001910191802752033F401032FF401025AA4
:1030900001B3FF0FD3FF0F32320269121D01020389
:0C30A000040102030406070809000000F8
:04000005080000B13E
:00000001FF
